:020000040800F2
:10000000100C0024AD020008B1430008494200086A
:10001000AD430008E9060008836300080000000003
:100020000000000000000000000000002D47000854
:100030000907000800000000B3430008B94C00089D
:10004000C7020008C7020008C7020008C70200086C
:10005000C7020008C7020008C7020008C70200085C
:10006000C7020008C7020008C7020008C70200084C
:10007000C7020008C7020008C7020008C70200083C
:10008000C7020008C7020008C7020008C70200082C
:10009000C7020008C7020008C7020008C70200081C
:1000A000C7020008C7020008C7020008C70200080C
:1000B000ED4F0008C7020008DD500008C702000825
:1000C000C7020008C7020008C7020008C7020008EC
:1000D000C7020008C7020008C7020008C7020008DC
:1000E000C7020008C702000800000000C70200089D
:1000F000C7020008C702000819520008C70200081A
:10010000C7020008C7020008CD510008C702000856
:10011000C7020008C7020008C70200080952000809
:10012000C7020008C7020008C7020008C70200088B
:10013000C7020008C7020008C7020008C70200087B
:1001400000000000000000000000000000000000AF
:10015000C7020008C7020008C7020008C70200085B
:10016000C7020008C7020008C7020008C70200084B
:10017000C7020008C7020008C7020008000000000C
:10018000C7020008C702000895560008C702000809
:10019000C7020008C7020008C7020008C70200081B
:1001A000C7020008C7020008C7020008C70200080B
:1001B000C7020008C7020008C7020008C7020008FB
:1001C000C7020008C7020008C7020008C7020008EB
:1001D000C7020008C7020008C7020008C7020008DB
:1001E000C7020008C7020008C7020008C7020008CB
:1001F000C7020008C7020008C7020008C7020008BB
:10020000C7020008C7020008C7020008C7020008AA
:10021000C7020008C7020008C7020008C70200089A
:10022000C7020008C7020008C7020008000000005B
:10023000C7020008C702000800000000C70200084B
:10024000C7020008C7020008C7020008C70200086A
:10025000C7020008C7020008C7020008C70200085A
:10026000C7020008C7020008C7020008C70200084A
:10027000C7020008C7020008C7020008000000000B
:10028000C702000800000000C702000800000000CC
:1002900000000000C7020008DFF80CD000F0E8F80A
:1002A0000048004705770008100C002406488047E6
:1002B00006480047FEE7FEE7FEE7FEE7FEE7FEE74B
:1002C000FEE7FEE7FEE7FEE7C14C000899020008E2
:1002D0002DE9F05F0546002092469B46884606467B
:1002E000814640241BE0284641464746224600F00E
:1002F00077F853465A46C01A914110D31146184612
:10030000224600F05EF82D1A67EB01084F462246A0
:100310000120002100F055F817EB00094E41201E86
:10032000A4F10104DFDC484631462A464346BDE8D5
:10033000F09FD2B201E000F8012B491EFBD27047BA
:100340000022F6E710B513460A4604461946FFF7A1
:10035000F0FF204610BD421C10F8011B0029FBD104
:10036000801A704770B50F4D00B92868002412E05C
:100370000A4602E09E4203D0521C1378002BF9D1AA
:10038000DAB2224305D02BB124B1002100F8011BC1
:1003900004E00446401C0678002EE9D1286020467F
:1003A00070BD0000C800002470B5064606F020F8B5
:1003B000046805460A220021304600F021F82C602E
:1003C00070BD202A04DB203A00FA02F100207047B9
:1003D0009140C2F1200320FA03F319439040704783
:1003E000202A04DB203A21FA02F00021704721FA8A
:1003F00002F3D040C2F120029140084319467047F1
:100400002DE9F04791460F4680460446002614F831
:10041000015B2DB100F03EF80068405DC007F6D1E9
:100420002B2D02D02D2D18D0641E4A463946204669
:1004300000F034F827B13968A14201D1C7F8008033
:1004400071054FF002040BD54042002803DD05F092
:10045000CFFF0460A007BDE8F08746F48066E4E7BC
:100460000028F8DA05F0C4FF04606FF00040F2E7FE
:10047000064C074D06E0E06840F0010394E80700F1
:1004800098471034AC42F6D3FFF70AFFA8AE000835
:10049000C8AE000800487047A4AE00082DE9F05F20
:1004A00082460078002715468B460AF10104B946BA
:1004B000302801D09DB113E014F8010B01277828F2
:1004C00003D0582801D045B10AE00DB1102D07D155
:1004D0000027102514F8010B02E0082500E00A258A
:1004E0000026B0460EE005FB080005FB06F10127DB
:1004F00001EB10461FFA80F8B6F5803F00D3B946ED
:1005000014F8010B294600F018F80028EBDABBF1CB
:10051000000F05D00FB1641E00E05446CBF8004038
:10052000B9F1000F06D005F063FF02210160C81E7B
:10053000BDE8F09F48EA0640FAE73A2800D2303892
:1005400020F02002412A01D3A2F13700884201D3D2
:100550004FF0FF30704770B5044600252068806872
:1005600000F00300012806D12068006800F00100B7
:1005700008B1012000E0002080B32068806800F00E
:100580000D00012800D100E0002050B100BF20681C
:10059000806840F0020021688860032021680860BC
:1005A00009E0606D40F010006065A06D40F0010052
:1005B000A065012070BD01F0E7F805460FE001F0ED
:1005C000E3F8401B02280AD9606D40F01000606516
:1005D000A06D40F00100A0650120EBE705E0206878
:1005E000806800F001000028E9D10020E2E7000067
:1005F00070B52DED028BB0EE408A04460025B7EEB3
:10060000C81A9FED302B9FED310B01EE020BBDEEB2
:10061000C00B10EE100A05B2012C04D129462D485A
:1006200005F02EF84AE0052C04D12946294805F0AA
:100630002AF843E0092C04D12946264805F026F87B
:100640003CE0032C04D12946234805F019F835E095
:10065000072C04D12946204805F015F82EE00B2C74
:1006600004D129461D4805F00BF827E024B9294696
:100670001B4805F005F821E0042C04D12946184850
:1006800005F001F81AE0082C04D12946144804F0BA
:10069000FDFF13E0022C04D12946124804F0F0FFBC
:1006A0000CE0062C04D129460E4804F0ECFF05E0CE
:1006B0000A2C03D129460B4804F0E8FFBDEC028B5D
:1006C00070BD00003D0AD7A3703D16400000000039
:1006D000007087405803002498030024D8030024A6
:1006E000D80200241803002400BFFEE710B503F071
:1006F000DFFF03F08FFF0348006840F0040001496A
:10070000086010BD9CEF00E0704700002DE9F0414B
:1007100088B004460D4616461F46DDF8388024484A
:1007200000F001FD23482249086000208860084647
:10073000C0F80C80002101744174817444618561AA
:10074000C661076241638163C163032101640421BF
:100750004164002101658165C165012101660021B7
:1007600041660421816600F0F1FC18B1012008B057
:10077000BDE8F0814FF08040009000200190022001
:1007800002900120039000200490059069460848DB
:1007900000F074FC08B10220E9E7054800F07AFE99
:1007A00000220121024800F013FC0020DFE70000D6
:1007B0006C06002400A0004010B50146486BC866D6
:1007C0000868D0F884004FF6FC739843CB6E40EA7B
:1007D00083000B68C3F884000868D0F8840020F414
:1007E0007F03088F43EA00400B68C3F88400CB6E98
:1007F000886B03440B670868D0F888004FF6FC73D9
:1008000098430B6F40EA83000B68C3F888000868C0
:10081000D0F8880020F47F03888F43EA00400B68FB
:10082000C3F888000B6FC86B03EB40034B67086885
:10083000D0F8A0004FF6FC7398434B6F40EA83005A
:100840000B68C3F8A0000868D0F8A00020F4FE03ED
:100850004020405A43EA00400B68C3F8A000D1E9A9
:1008600010404B6F04FB00338B670868D0F8B00072
:1008700020F0FC03886F43EA80000B68C3F8B000E7
:100880000868D0F8B00020F4FE03B1F8480043EA4D
:1008900000400B68C3F8B000D1E912408B6F04FB35
:1008A0000033CB670868D0F8AC0020F0FC03C86FB9
:1008B00043EA80000B68C3F8AC00D1E91440CB6F69
:1008C00004FB0033802043500868D0F8F0004FF656
:1008D000FC73984380235B5840EA83000B68C3F89D
:1008E000F0000868D0F8F00020F47C13B1F858004C
:1008F00043EA00400B68C3F8F00080204358886D3D
:1009000003EB4003842043500868D0F8C00020F077
:10091000FC038420405843EA80000B68C3F8C00001
:100920000868D0F8C00020F47C13B1F85C0043EAFA
:1009300000400B68C3F8C00084204358CC6D886E1B
:1009400004FB0033882043500868D0F8C00020F032
:100950007C5391F8600043EA00600B68C3F8C00064
:10096000294B486B03EB8000C866CB6E886B03EBAA
:1009700080030B670B6FC86B03EBC0034B67D1E9B8
:10098000100358434B6F03EB80038B67D1E91203CD
:1009900058438B6F03EB8003CB67D1E914035843B3
:1009A000CB6F03EB8003802043504358886D03EBEB
:1009B000C003842043508B6EC86D584384235B581A
:1009C00003EB8003882043508B6E086E58438823C6
:1009D0005B5803EB80039020435040580B4B9842E8
:1009E00007D9D1F8980040F02000C1F89800012004
:1009F00010BDCA6E02E000201060121D9020405809
:100A00009042F8D80020F3E700AC0040FCB500406D
:100A10002DE9F04104460D4616460027B84600BFB2
:100A200094F85000012802D10220BDE8F081012095
:100A300084F8500000BF2046FFF78DFD0746CFBB6E
:100A4000606D20F4885040F0020060652068806886
:100A500020F080403043216888602068806820F45E
:100A600080302843216888602068806840F000401A
:100A70002168886011E008F10108B8F57A4F0CD3BD
:100A8000606D20F0020040F01000606500BF0020A3
:100A900084F8500000BF0120C7E72068806800F09C
:100AA00000400028E7D1606D20F0020040F0010016
:100AB000606504E0FFE7606D40F01000606500BF16
:100AC000002084F8500000BF3846AEE7F8B5044671
:100AD00000270026002000900CB90120F8BDE06836
:100AE00018B1207F012800D100BF606D30B92046C9
:100AF00000F098F90020A06584F850002068806814
:100B000000F0005028B12068806820F00050216873
:100B100088602068806800F08050A8B920688068EC
:100B200040F0805021688860B5480068B549B0FB46
:100B3000F1F000EB80004000009002E00098401EC1
:100B4000009000980028F9D12068806800F080505B
:100B500040B9606D40F010006065A06D40F001008C
:100B6000A0650127606D00F0100000286FD120689B
:100B70008068C0F380000028F8D1606D40F002006A
:100B80006065A1492068884203D0A0492068884256
:100B900001D19F4D00E09F4D2068806800F0030068
:100BA000012806D12068006800F0010008B101208A
:100BB00000E00020002877D193492068884222D1A4
:100BC00092480830006800F00300012806D18F48E1
:100BD000006800F0010008B1012000E0002070B9B9
:100BE0008D48806800F00300012806D18A4800681B
:100BF00000F0010008B1012000E0002008B1012050
:100C00004BE0002049E081492068884222D17E489B
:100C1000806800F00300012806D17B48006800F0DE
:100C2000010008B1012000E0002070B97A48806816
:100C300000F00300012806D17748006800F00100A9
:100C400008B1012000E0002010B1012010E0D0E048
:100C500000200DE06C48806800F00300012806D1F8
:100C60006948006800F0010008B1012000E00020A0
:100C700078B966480830006800F00300012806D102
:100C80006248006800F0010008B1012000E0002087
:100C900010B1012001E007E0002028B9A86820F485
:100CA0007C1061680843A860607D4FF4005191FAA0
:100CB000A1F1B1FA81F18840216B0843A168084392
:100CC000217F4FF4803292FAA2F2B2FA82F291407E
:100CD00040EA0106207F012809D1206A401E4FF416
:100CE000602191FAA1F1B1FA81F188400643606A6E
:100CF000012805D0A06A18B1D4E9090108430643C8
:100D00002068C0684549084030432168C8602068B1
:100D1000806800F00C0008B1012000E0002070BBEA
:100D2000207D4FF4804191FAA1F1B1FA81F1884020
:100D3000E16A40EA01062068C06844F20301884382
:100D400030432168C86094F83900012818D1606ADE
:100D5000012801D0A06A00B900BFA08F012141EA9B
:100D60000041206C0843616C0843A16C0843216872
:100D700009692B4A114008432168086106E01EE01A
:100D80002068006920F0010021680861206800697E
:100D900020F07040616B08432168086194F83800C6
:100DA000012806D12068806840F48070216888603E
:100DB00005E02068806820F4807021688860E06821
:100DC000012809D12068006B20F00F00A169491E9D
:100DD00008432168086305E02068006B20F00F00DD
:100DE00021680863606D20F0020040F0010060653A
:100DF00004E0606D40F010006065012738466DE644
:100E00000000002480841E000020024000210240D7
:100E100000230240006302580060025803C0F0FF44
:100E20001EF800FC10B586B00446142101A8FFF797
:100E300087FA17492068884227D100BF1548006803
:100E400040F02000134908600846006800F02000C8
:100E5000009000BF00BF00BF0E480830006840F09F
:100E600001000C49083108600846006800F00100E4
:100E7000009000BF00BF0F200190032002900020CF
:100E8000039001A9044800F053FB06B010BD000018
:100E900000200240D84402580000025810B5044611
:100EA0000CB9012010BD94F83500022803D0802031
:100EB00060650120F6E734492068884205D333494C
:100EC0002068884201D8012000E00020C0B1042041
:100ED00084F835002C49206888420AD32B492068C1
:100EE000884206D82068006820F001002168086068
:100EF00048E02068006820F001002168086041E0B7
:100F00002068006820F00E00216808601E492068F3
:100F100088420AD31D492068884206D820680068A4
:100F200020F001002168086005E02068006820F0DA
:100F3000010021680860206E006820F48070216E36
:100F4000086094F85C100120884011490860D4E9D9
:100F500019104860E06E40B1E06E006820F48070C7
:100F6000E16E0860D4E91C10486000BF002084F8DE
:100F7000340000BF012084F83500206D10B12046F8
:100F8000216D884700208DE710000240B804024020
:100F90000454025870B5044600F0F6FB0646254698
:100FA000681C10B104480078054400BF00F0ECFB59
:100FB000801BA842FAD370BD1400002403480068C7
:100FC00040F001000149086070470000200400580B
:100FD00010B5034693F89400012803D093F89400C9
:100FE00002283ED11868806D084030B91868C06D7D
:100FF00040F001001C68E0650EE01868806D084054
:10100000884206D11868C06D40F002001C68E06597
:1010100002E003201C68E06501F4007030B118683C
:10102000D0F8E00010431C68C4F8E00001F48060D0
:1010300030B11868D0F8E40010431C68C4F8E4002C
:1010400000BF1868406D0B4C0C4020431C68606565
:101050000948006840EA9170074C206000BF0020FA
:1010600010BDD3F8980040F00200C3F898000120AA
:10107000F6E70000FFFFCF3F14A8004070B502461E
:1010800092F89400012803D092F89400022842D1EB
:10109000C868072800D100BF086818BBC8680728BF
:1010A00000D000BFC86807280BD1088A4FF06056EF
:1010B00046EA0040CE6940EA06208E6940EA06030F
:1010C0000AE0087A80070E7B40EAC6600E8A40EA92
:1010D00006404E6940EA0603D66E486806EB800477
:1010E000236016E0C868072800D000BF0E7B08699F
:1010F00040EA4673C868072801D18D6903E00E7A7B
:10110000486940EA8675166F486806EBC00408C453
:101110002560002070BDD2F8980040F00200C2F8AF
:1011200098000120F6E710B504460CB9012010BD67
:10113000204600F0C9F9204600F060F90020C4F80C
:10114000980084F8940000BFF1E7000070B50446F1
:1011500000250CB9012070BDA6492068884203D142
:10116000206800F580706060A068B0F5407F00D115
:1011700000BF206C00B100BFA06C00B100BF206DAB
:1011800000B100BF206E00B100BFD4E917100844C1
:1011900000B100BF94F8940028B9002084F89500AD
:1011A000204600F039F92068806920F0100021689D
:1011B000886100F0E9FA05460EE000F0E5FA401B10
:1011C0000A2809D99434606840F001006060032067
:1011D00004F894090120BEE72068806900F0080047
:1011E0000828EAD02068806940F001002168886101
:1011F00000F0CAFA05460EE000F0C6FA401B0A28C5
:1012000009D99434606840F001006060032004F85C
:10121000940901209FE72068806900F00100002800
:10122000EAD02068806940F0020021688861207C53
:10123000012806D12068806920F04000216888617B
:1012400005E02068806940F0400021688861607C8A
:10125000012806D12068806940F4804021688861B7
:1012600005E02068806920F4804021688861A07CC6
:10127000012806D12068806920F4805021688861A7
:1012800005E02068806940F480502168886120680A
:10129000806920F44070A168084321688861E06893
:1012A000012806D12068806940F004002168886127
:1012B00020E0E068F0B1E068022815D0206880697D
:1012C00040F08000216888612068006940F01000CB
:1012D00021680861E06803280CD12068806940F02B
:1012E00020002168886105E02068806940F02000C6
:1012F00021688861207E401E4106E069401E41EA67
:101300000020216A491E0843A18A491E40EA014083
:101310002168C861A068B0F5407F0FD1A06A401E67
:10132000E16A491E40EA0121206B401E41EA00119A
:10133000A08C401E41EA00402168C860206E38B190
:101340002068D0F8C000616E08432168C1F8C00071
:10135000D4E91710084458B12068D0F8C80020F02C
:101360000700254AA16E515C08432168C1F8C800F6
:10137000206C58B12068D0F8BC0020F007001E4A4D
:10138000616C515C08432168C1F8BC00A06C60B17D
:101390002068D0F8BC0020F07001174AE06C105CA7
:1013A00041EA00102168C1F8BC00206D60B12068DE
:1013B000D0F8BC0020F4E0610F4A606D105C41EA97
:1013C00000202168C1F8BC000A492068884205D184
:1013D0006068806820F00300616888602046FFF73D
:1013E000EBF90020C4F89800012084F89400002054
:1013F000B1E6000000A00040A8AB0008054909685C
:1014000041F48071034A11601146096821F480712A
:10141000116070479444025810B5B6B0044600BF3E
:101420001A48006840F4807018490860084600684F
:1014300000F48070019000BF00BF00BF13480C385B
:10144000006840F0010011490C3908600846006846
:1014500000F00100019000BF00BF4FF40040029077
:1014600040031D9002A800F095FC4FF4C05031904D
:10147000022032900120339034900920359031A918
:10148000034800F055F836B010BD0000EC44025897
:1014900000000258014691F8940001280CD1022066
:1014A00081F894000868806920F001000A68906162
:1014B0000020C1F898007047D1F8980040F004006F
:1014C000C1F898000120F6E70146002291F8940047
:1014D000022825D10868806940F001000B689861F6
:1014E0000DE01046521C0A2809D99431486840F092
:1014F00001004860032001F8940901207047086842
:10150000806900F001000028EBD00868806940F095
:1015100002000B689861012081F894000020EDE73B
:10152000D1F8980040F00800C1F898000120E5E7E4
:10153000F8B502460B460021002600240020824D0B
:1015400000BFFCE0012707FA01F61F6807EA06045E
:10155000B4427CD15F68022F02D05F68122F1AD18B
:101560004FEAD10C02F1200757F82C004F074FEA41
:10157000D76C0F2707FA0CF7B8434FEA417C4FEAC4
:10158000DC6C1F6907FA0CF738434FEAD10C02F103
:10159000200747F82C0010684FEA410C032707FA90
:1015A0000CF7B8431F7907F003074FEA410C07FA1D
:1015B0000CF7384310605F68012F08D05F68022F76
:1015C00005D05F68112F02D05F68122F17D1906885
:1015D0004FEA410C032707FA0CF7B8434FEA410CD6
:1015E000DF6807FA0CF738439060506801278F4096
:1015F000B8431F79C7F300178F4038435060D06855
:101600004FEA410C032707FA0CF7B8434FEA410CA5
:101610009F6807FA0CF73843D0605F6807F080577F
:10162000B7F1805F95D100BF484F3F6847F0020790
:10163000DFF818C1CCF8007067463F6807F0020772
:10164000009700BF00BF424F4FEA910C00E075E0E9
:1016500057F82C008F074FEA177C0F2707FA0CF773
:10166000B8433C4FBA4201D100272DE03A4FBA426D
:1016700001D1012728E0394FBA4201D1022723E0E6
:10168000374FBA4201D103271EE0364FBA4201D18B
:10169000042719E0344FBA4201D1052714E0334F33
:1016A000BA4201D106270FE0314FBA4201D10727D4
:1016B0000AE0304FBA4201D1082705E02E4FBA4266
:1016C00001D1092700E00A274FEA817C4FEA1C7C00
:1016D00007FA0CF738431E4F4FEA910C47F82C00DD
:1016E0002868A0435F6807F48037B7F5803F00D1D2
:1016F000204328606868A0435F6807F40037B7F5A7
:10170000003F00D1204368604FF0B0473868A043E5
:101710005F6807F48017B7F5801F00D120434FF0B2
:10172000B04738607868A0435F6807F40017B7F5E2
:10173000001F00D120434FF0B0477860491C1029AA
:10174000FFF400AFF8BD000080000058F4440258D8
:10175000080400580000025800040258000802580B
:10176000000C0258001002580014025800180258C9
:10177000001C025800200258002402580AB10183BC
:1017800000E0418370470000014800687047000096
:101790000C00002403480068034909780844014903
:1017A000086070470C0000241400002410B50320CA
:1017B00000F07EF80F2000F007F808B1012010BDFE
:1017C00000F028F80020FAE770B504460E480078CB
:1017D0004FF47A71B1FBF0F00C490968B1FBF0F5F8
:1017E000284601F07BFE08B1012070BD102C07D205
:1017F00000222146501E00F01EF80548046001E05A
:101800000120F2E70020F0E714000024000000248B
:1018100010000024704701460846002809DB00F04C
:101820001F0301229A4043099B0003F1E023C3F800
:10183000002100BF70472DE9F05F80460D46164637
:1018400004F0BAFD074639462A46334601F0070040
:10185000C0F1070ABAF1040F02D94FF0040A01E0FF
:10186000C0F1070AD14600F1040ABAF1070F02D20B
:101870004FF0000A01E0A0F1030AD4464FF0010A3C
:101880000AFA09FAAAF1010A0AEA020A0AFA0CFAA1
:101890004FF0010B0BFA0CFBABF1010B0BEA030B46
:1018A0004AEA0B042146404604F08EFDBDE8F09F55
:1018B00000BF00F00702064B19684FF6FF031940FE
:1018C000044B0B4343EA0221014B196000BF7047F0
:1018D0000CED00E00000FA0510B501F067F90949C8
:1018E000096801F470614FF4807292FAA2F2B2FAC0
:1018F00082F2D140044A515CC8400449086008465D
:10190000006810BD1844025828AB000800000024ED
:1019100010B501F003F90749096801F070011022C0
:1019200092FAA2F2B2FA82F2D140034A515CC84064
:1019300010BD00002044025828AB000870B50146D5
:1019400000220120002300249FED811AB0EE410AFD
:101950009FED7F1AF0EE410A7E4D2D6805F00302DF
:101960007C4D2D68C5F305307A4D2D1D2D6805F091
:101970001003784D14352D68C5F3CC0515FB03F520
:1019800001EE105AB8EE411AB0EE410A22B1012A16
:101990004DD0022A7DD169E06E4D283D2D68C5F3FA
:1019A00040152DB36B4D283D2D68C5F3C1066A4D1A
:1019B00025FA06F4B4FBF0F501EE105AF8EE411AE0
:1019C0009FED661A80EE012A624D10352D68C5F331
:1019D000080501EE105AB8EE411A32EE011AB7EEC0
:1019E000002A31EE021A21EE811AF0EE410A1DE0C2
:1019F000594DB5FBF0F501EE105AF8EE411A9FED86
:101A0000571A80EE012A534D10352D68C5F308058D
:101A100001EE105AB8EE411A32EE011AB7EE002A62
:101A200031EE021A21EE811AF0EE410A5EE04C4DD1
:101A3000B5FBF0F501EE105AB8EE412A9FED471ABA
:101A4000C0EE011A434D10352D68C5F3080501EEAF
:101A5000105AB8EE411A31EE811AF7EE001A31EE43
:101A6000211A22EE011AF0EE410A3FE03D4DB5FB8E
:101A7000F0F501EE105AF8EE411A9FED381A80EE9B
:101A8000012A344D10352D68C5F3080501EE105AB2
:101A900000E00CE0B8EE411A32EE011AB7EE002A6F
:101AA00031EE021A21EE811AF0EE410A1EE02C4DB1
:101AB000B5FBF0F501EE105AB8EE412A9FED271A5A
:101AC000C0EE011A234D10352D68C5F3080501EE4F
:101AD000105AB8EE411A31EE811AF7EE001A31EEC3
:101AE000211A22EE011AF0EE410A00BF00BF194D83
:101AF00010352D68C5F346256D1C01EE105AB8EE61
:101B0000411AC0EE811ABCEEE11A81ED001A114DA6
:101B100010352D68C5F306456D1C01EE105AB8EE60
:101B2000411AC0EE811ABCEEE11A81ED011A094D8D
:101B300010352D68C5F306656D1C01EE105AB8EE20
:101B4000411AC0EE811ABCEEE11A81ED021A70BD95
:101B500000000000284402580090D0030000004616
:101B600000093D0040787D0170B50146002201204A
:101B7000002300249FED811AB0EE410A9FED7F1AE9
:101B8000F0EE410A7E4D2D6805F003027C4D2D6874
:101B9000C5F305507A4D2D1D2D6805F48073784DE1
:101BA0001C352D68C5F3CC0515FB03F501EE105A65
:101BB000B8EE411AB0EE410A22B1012A4DD0022AF4
:101BC0007DD169E06E4D283D2D68C5F340152DB3DC
:101BD0006B4D283D2D68C5F3C1066A4D25FA06F404
:101BE000B4FBF0F501EE105AF8EE411A9FED661ABB
:101BF00080EE012A624D18352D68C5F3080501EE07
:101C0000105AB8EE411A32EE011AB7EE002A31EE40
:101C1000021A21EE811AF0EE410A1DE0594DB5FB82
:101C2000F0F501EE105AF8EE411A9FED571A80EECA
:101C3000012A534D18352D68C5F3080501EE105AD9
:101C4000B8EE411A32EE011AB7EE002A31EE021A4E
:101C500021EE811AF0EE410A5EE04C4DB5FBF0F545
:101C600001EE105AB8EE412A9FED471AC0EE011A54
:101C7000434D18352D68C5F3080501EE105AB8EE2E
:101C8000411A31EE811AF7EE001A31EE211A22EED6
:101C9000011AF0EE410A3FE03D4DB5FBF0F501EED3
:101CA000105AF8EE411A9FED381A80EE012A344D91
:101CB00018352D68C5F3080501EE105A00E00CE058
:101CC000B8EE411A32EE011AB7EE002A31EE021ACE
:101CD00021EE811AF0EE410A1EE02C4DB5FBF0F525
:101CE00001EE105AB8EE412A9FED271AC0EE011AF4
:101CF000234D18352D68C5F3080501EE105AB8EECE
:101D0000411A31EE811AF7EE001A31EE211A22EE55
:101D1000011AF0EE410A00BF00BF194D18352D68B9
:101D2000C5F346256D1C01EE105AB8EE411AC0EEFF
:101D3000811ABCEEE11A81ED001A114D18352D689B
:101D4000C5F306456D1C01EE105AB8EE411AC0EEFF
:101D5000811ABCEEE11A81ED011A094D18352D6882
:101D6000C5F306656D1C01EE105AB8EE411AC0EEBF
:101D7000811ABCEEE11A81ED021A70BD000000006C
:101D8000284402580090D0030000004600093D009E
:101D900040787D012DE9F0410446002500262068A9
:101DA00000F00060B0F1006F30D1606E48B1B0F566
:101DB000801F0DD0B0F5001F10D0B0F5401F15D119
:101DC00013E0F948006840F40030F74908600FE07C
:101DD0000221201D02F0EEFA054609E0022104F17D
:101DE000240002F07FFB054602E001E0012500BF70
:101DF00000BF55B9EC482430006820F44010616EF3
:101E00000843E9492431086000E02E43208800F4AB
:101E10008070B0F5807F2DD1606D05281AD2DFE883
:101E200000F0030A10171800DF48006840F4003083
:101E3000DD49086010E00021201D02F0BBFA0546D4
:101E40000AE0002104F1240002F04CFB054603E007
:101E500002E001E0012500BF00BF55B9D24824309F
:101E6000006820F00700616D0843CF492431086005
:101E700000E02E43208800F40070B0F5007F33D1DD
:101E8000A06D802817D003DC40B140281CD10CE0A5
:101E9000C02817D0B0F5807F16D114E0C248006882
:101EA00040F40030C049086010E00021201D02F01D
:101EB00081FA05460AE0002104F1240002F012FB39
:101EC000054603E002E001E0012500BF00BF55B96F
:101ED000B5482430006820F4E070A16D0843B24991
:101EE0002431086000E02E43208800F48060B0F5C3
:101EF000806F38D1D4F8A400B0F5800F19D004DC7D
:101F000050B1B0F5001F1DD10DE0B0F5C00F17D0D6
:101F1000B0F5000F16D114E0A348006840F400307B
:101F2000A149086010E00021201D02F043FA054697
:101F30000AE0002104F1240002F0D4FA054603E08F
:101F400002E001E0012500BF00BF5DB996482C30DA
:101F5000006820F46000D4F8A410084392492C31A2
:101F6000086000E02E43208800F40060B0F5006FA8
:101F700038D1D4F8A800B0F1007F19D004DC50B1FA
:101F8000B0F1807F1DD10DE0B0F1407F17D0B0F1EE
:101F9000806F16D114E08448006840F40030824914
:101FA000086010E00021201D02F004FA05460AE056
:101FB000002104F1240002F095FA054603E002E056
:101FC00001E0012500BF00BF5DB977482C300068F3
:101FD00020F0E060D4F8A810084373492C31086061
:101FE00000E02E43206800F00070B0F1007F27D1A0
:101FF000A06CA0B1102804D0202809D030280FD11F
:102000000CE06948006840F400306749086009E066
:102010000221201D02F0CEF9054603E002E001E0B6
:10202000012500BF00BF55B95F482030006820F08F
:102030003000A16C08435C492031086000E02E4369
:10204000208800F48050B0F5805F36D1E06DB0F5A7
:10205000005F19D004DC50B1B0F5805F1DD10DE0F8
:10206000B0F5405F17D0B0F5804F16D114E04E4860
:10207000006840F400304C49086010E00021201D49
:1020800002F098F905460AE0002104F1240002F06C
:1020900029FA054603E002E001E0012500BF00BF88
:1020A00055B941482430006820F4E040E16D084310
:1020B0003D492431086000E02E43208800F40050A0
:1020C000B0F5005F34D1206EB0F5403F1DD007DC85
:1020D00068B1B0F5803F0BD0B0F5003F18D10DE0EE
:1020E000B0F5802F12D0B0F5A02F11D10FE011E084
:1020F0000121201D02F05EF905460BE0012104F1EB
:10210000240002F0EFF9054604E003E002E001E0FC
:10211000012500BF00BF55B923482430006820F4D2
:10212000E020216E084320492431086000E02E435E
:10213000208800F48040B0F5804F38D1D4F8AC004E
:10214000B0F1405F1DD007DC68B1B0F1805F0BD00B
:10215000B0F1005F18D10DE0B0F1804F12D0B0F1B6
:10216000A04F11D10FE011E00121201D02F022F952
:1021700005460BE0012104F1240002F0B3F9054605
:1021800004E003E002E001E0012500BF00BF6DB9FB
:1021900005482C30006820F0E040D4F8AC1008432B
:1021A00001492C31086002E02C4402582E4320885B
:1021B00000F40040B0F5004F26D1E06E98B1B0F1C8
:1021C000805F03D0B0F1005F0ED106E0FA480068EE
:1021D00040F40030F849086008E00121201D02F0B9
:1021E000E9F8054602E001E0012500BF00BF55B94E
:1021F000F1482430006820F04050E16E0843EE4979
:102200002431086000E02E43206800F08070B0F1B7
:10221000807F27D1606CA0B1012804D0022809D0AA
:1022200003280FD10CE0E448006840F40030E24994
:10223000086009E00221201D02F0BCF8054603E019
:1022400002E001E0012500BF00BF55B9DA482030A7
:10225000006820F00300616C0843D7492031086012
:1022600000E02E43206800F48000B0F5800F7DD19F
:10227000D248006840F48070D0490860FFF784FAC3
:10228000074606E0FFF780FAC01B642801D9032542
:1022900005E0CA48006800F480700028F2D000BF52
:1022A0008DBBC5484430006800F44070B4F8B010ED
:1022B00001F44071884214D0BF484430006820F4D3
:1022C0004078BD484430006840F48030BA49443119
:1022D00008600846006820F4803008600846C0F8AE
:1022E0000080D4F8B000B0F5807F15D1FFF74CFA2C
:1022F000074609E0FFF748FAC01B41F288318842DF
:1023000002D9032507E038E0AB4844300068C0F349
:1023100040000028EED000BF4DBB00BFB4F8B000B5
:1023200000F44070B0F5407F0ED1A3481C3800681F
:1023300020F47C51A24AD4F8B000104041EA1010B9
:102340009D491C39086007E09B481C38006820F450
:102350007C5099491C390860974844300068B4F8AB
:10236000B010C1F30B010843934901E006E002E01D
:102370004431086002E02E4300E02E43207800F054
:10238000010068B3A06F182819D005DC48B10828EF
:1023900008D0102816D10BE0202811D0282811D100
:1023A0000FE011E00121201D02F004F805460BE0CA
:1023B000012104F1240002F095F8054604E003E051
:1023C00002E001E0012500BF00BF55B97A4828307E
:1023D000006820F03800A16F084377492831086071
:1023E00000E02E43207800F00200022828D1606F20
:1023F000062815D2DFE800F003040A11121311E0D9
:102400000121201D01F0D6FF05460BE0012104F15A
:10241000240002F067F8054604E003E002E001E072
:10242000012500BF00BF55B963482830006820F07F
:102430000700616F084360492831086000E02E43BF
:10244000207800F0040004282AD1D4F8900006284F
:1024500015D2DFE800F003040A11121311E0012184
:10246000201D01F0A7FF05460BE0012104F1240027
:1024700002F038F8054604E003E002E001E001253F
:1024800000BF00BF5DB94C482C30006820F0070049
:10249000D4F89010084348492C31086000E02E43DE
:1024A000207800F02000202836D1D4F88C00B0F13C
:1024B000405F1DD007DC68B1B0F1805F0BD0B0F198
:1024C000005F18D10DE0B0F1804F12D0B0F1A04FF5
:1024D00011D10FE011E00021201D01F06BFF054636
:1024E0000BE0022104F1240001F0FCFF054604E0AA
:1024F00003E002E001E0012500BF00BF5DB92E4806
:102500002830006820F0E040D4F88C1008432A49B5
:102510002831086000E02E43207800F04000402879
:1025200036D1D4F89800B0F5406F1DD007DC68B103
:10253000B0F5806F0BD0B0F5006F18D10DE0B0F59D
:10254000805F12D0B0F5A05F11D10FE011E0002143
:10255000201D01F02FFF05460BE0022104F12400AD
:1025600001F0C0FF054604E003E002E001E00125C0
:1025700000BF00BF5DB910482C30006820F4E05067
:10258000D4F8981008430C492C31086000E02E4321
:10259000207800F0800080283BD1D4F89C00B0F572
:1025A000C04F24D00EDCA0B1B0F5005F12D0B0F562
:1025B000804F1FD114E000002C44025800480258FC
:1025C000FFFCFF0FB0F5004F12D0B0F5204F11D136
:1025D0000FE011E00021201D01F0ECFE05460BE0AC
:1025E000022104F1240001F07DFF054604E003E030
:1025F00002E001E0012500BF00BF4DB9B24800680C
:1026000020F46040D4F89C100843AF49086000E013
:102610002E43207800F00800082816D1D4F8800056
:10262000B0F5805F06D1022104F1240001F05AFFC9
:1026300006430AE0A448001F006820F44050D4F884
:1026400080100843A049091F0860207800F010009E
:10265000102814D1D4F89400B0F5807F06D102215F
:1026600004F1240001F03EFF064308E096480068AC
:1026700020F44070D4F8941008439349086020680F
:1026800000F40020B0F5002F26D1D4F8A00030B11E
:10269000B0F5803F09D0B0F5003F0ED10CE000212D
:1026A000201D01F087FE054609E0022104F1240007
:1026B00001F018FF054602E001E0012500BF00BF60
:1026C0004DB98148006820F44030D4F8A010084388
:1026D0007D49086000E02E43206800F48020B0F5BA
:1026E000802F2DD1D4F88400B0F5801F06D0B0F52E
:1026F000001F0CD0B0F5401F11D10FE072482C38EC
:10270000006840F4003070492C39086009E001216C
:1027100004F1240001F0E6FE054602E001E0012597
:1027200000BF00BF5DB96848001F006820F440107A
:10273000D4F8841008436449091F086000E02E4360
:10274000206800F48030B0F5803F24D1E06C18B1EF
:10275000B0F5803F0FD108E05B482C38006840F4AA
:10276000003059492C39086007E00221201D01F092
:1027700021FE054601E0012500BF00BF55B95248C2
:102780000C38006820F48030E16C08434E490C3965
:10279000086000E02E43206800F00050B0F1005FB8
:1027A00005D1022104F1240001F09CFE06432068BB
:1027B00000F40030B0F5003F27D1E06FA0B1B0F5D4
:1027C000807F06D0B0F5007F0CD0B0F5407F0CD1F3
:1027D00009E03D482C38006840F400303A492C3973
:1027E000086004E003E002E001E0012500BF00BF53
:1027F00055B93548001F006820F44070E16F084368
:102800003149091F086000E02E43206800F4801061
:10281000B0F5801F09D12C480838006820F000402E
:10282000216F0843284908390860206800F080506B
:10283000B0F1805F0AD124484838006820F4804015
:10284000D4F8B4100843204948390860206800F4DF
:102850000010B0F5001F09D11B480838006820F0AF
:102860008070A16E0843184908390860206800F09C
:102870008040B0F1804F11D100BF13484838006844
:1028800020F4004010494839086008460068D4F830
:10289000B81008430C494839086000BF206800F0B0
:1028A0000040B0F1004F09D107480C38006820F013
:1028B0004050216D084304490C39086016B90020C6
:1028C000BDE8F0810120FBE75844025870B504468A
:1028D0000D4600268D48006800F00700A8420ED281
:1028E0008A48006820F007002843884908600846A5
:1028F000006800F00700A84201D0012070BD2078D8
:1029000000F00200022807D18148006820F00F0083
:10291000E16808437E490860207800F00100002843
:1029200051D07B48006820F47060A1680843784962
:1029300008606068022807D1754818380068C0F33D
:102940004040F8B90120D9E76068032807D17048F2
:1029500018380068C0F34060A0B90120CEE7606875
:10296000012807D16A4818380068C0F3002048B928
:102970000120C3E7664818380068C0F3800008B932
:102980000120BBE762480838006820F00700616852
:1029900008435F4908390860FEF7F6FE064660689E
:1029A000022811D108E0FEF7EFFE801B41F28831CA
:1029B000884201D90320A1E755480838006800F093
:1029C00038001028EFD13AE06068032811D108E000
:1029D000FEF7DAFE801B41F28831884201D90320DC
:1029E0008CE74B480838006800F038001828EFD111
:1029F00025E06068012811D108E0FEF7C5FE801BC4
:102A000041F28831884201D9032077E740480838ED
:102A1000006800F038000828EFD110E008E0FEF769
:102A2000B3FE801B41F28831884201D9032065E75B
:102A300037480838006800F038000028EFD13348E4
:102A4000006800F00700A8420ED93048006820F066
:102A5000070028432D4908600846006800F0070079
:102A6000A84201D0012049E7207800F004000428A2
:102A700007D12748006820F07000216908432449E5
:102A80000860207800F00800082809D12048001DBF
:102A9000006820F07000616908431D49091D086045
:102AA000207800F01000102809D11948001D006896
:102AB00020F4E060A16908431549091D08602078E9
:102AC00000F02000202809D111480830006820F0CB
:102AD0007000E16908430E490831086000F066F8AB
:102AE0000B49096801F470614FF4807292FAA2F206
:102AF000B2FA82F2D140074A515CC84006490860E8
:102B00000F20FEF761FE0020F8E6000000200052D2
:102B10001844025828AB00080000002410B5FEF746
:102B2000DBFE0949096801F00F01012292FAA2F2C5
:102B3000B2FA82F2D140054A515CC84004490860AB
:102B40000846006810BD00001844025828AB000871
:102B50000400002410B5FFF7E1FF0749096801F000
:102B60007001102292FAA2F2B2FA82F2D140034A24
:102B7000515CC84010BD00001C44025828AB00083E
:102B800010B5FFF7CBFF0749096801F4E0614FF486
:102B9000807292FAA2F2B2FA82F2D140024A515CF9
:102BA000C84010BD1C44025828AB000870B5012570
:102BB00000EE905A0022012100230024DFED861A46
:102BC000B0EE610ADFED841AB0EE611A0020834D89
:102BD0002D6805F0380535B1082D15D0102D15D00C
:102BE000182D7CD114E07D4D103D2D68C5F34015A6
:102BF00045B17A4D103D2D68C5F3C106784D25FAD3
:102C000006F000E07648E5E07648E3E07648E1E06B
:102C1000724D18352D6805F00302704D18352D687A
:102C2000C5F305116D4D1C352D6805F001036B4D85
:102C300024352D68C5F3CC0515FB03F501EE905A3C
:102C4000F8EE611AB0EE610A22B1012A4FD0022AD1
:102C50007DD16BE0614D103D2D68C5F340152DB35E
:102C60005E4D103D2D68C5F3C1065D4D25FA06F495
:102C7000B4FBF1F501EE905AB8EE612ADFED5B1A74
:102C8000C0EE212A554D20352D68C5F3080501EE0B
:102C9000905AF8EE611A72EEA11AF7EE002A71EE60
:102CA000A21A62EE211AB0EE611A1FE04C4DB5FB7C
:102CB000F1F501EE905AB8EE612ADFED4C1AC0EE44
:102CC000212A464D20352D68C5F3080501EE905A9E
:102CD000F8EE611A72EEA11AF7EE002A00E077E032
:102CE00071EEA21A62EE211AB0EE611A5EE03D4D5D
:102CF000B5FBF1F501EE905AB8EE612ADFED3B1A13
:102D0000C0EE212A354D20352D68C5F3080501EEAA
:102D1000905AF8EE611A72EEA11AF7EE002A71EEDF
:102D2000A21A62EE211AB0EE611A3FE02E4DB5FBF9
:102D3000F1F501EE905AB8EE612ADFED2C1AC0EEE3
:102D4000212A264D20352D68C5F3080500E00EE048
:102D500001EE905AF8EE611A72EEA11AF7EE002A0F
:102D600071EEA21A62EE211AB0EE611A1EE01D4D3C
:102D7000B5FBF1F501EE905AF8EE612ADFED1B1A72
:102D800080EE212A154D20352D68C5F3080501EE8A
:102D9000905AF8EE611A72EE211AB7EE002A71EE1F
:102DA000821A62EEA11AB0EE611A00BF00BF0B4D8D
:102DB00020352D68C5F346256D1C00EE905AF8EEBF
:102DC000601A81EE212AFCEEC21A11EE900A01E08F
:102DD000044800BF00BF70BD00000000104402584E
:102DE0000090D00300093D0040787D0100000046BE
:102DF00070B504460025207800F00100002872D04C
:102E0000F948006800F0380010280CD0F648006837
:102E100000F03800182812D1F3481830006800F08C
:102E2000030002280BD1F04810380068C0F340407E
:102E300000286DD0606800286AD1012070BD00BFF5
:102E40006068B0F5803F08D1E7481038006840F46A
:102E50008030E549103908602EE0606868B9E248C2
:102E60001038006820F48030DF49103908600846C7
:102E7000006820F4802008601EE06068B0F5A02F94
:102E80000DD1D9481038006840F48020D649103957
:102E900008600846006840F4803008600CE0D248C2
:102EA0001038006820F48030CF4910390860084697
:102EB000006820F48020086000BF6068A0B1FEF7C1
:102EC00063FC054608E0FEF75FFC401B41F28831D9
:102ED000884201D90320B1E7C34810380068C0F325
:102EE00040400028EFD013E0FEF74EFC054608E016
:102EF000FEF74AFC401B41F28831884201D9032089
:102F00009CE7B94810380068C0F340400028EFD172
:102F1000207800F00200022847D1B348006800F092
:102F2000380058B1B048006800F0380018283ED189
:102F3000AD481830006800F00300B8BBAA4810384C
:102F40000068C0F3800018B1E06808B9012075E797
:102F5000A5481038006820F01900E1680843A2492C
:102F600010390860FEF710FC054606E0FEF70CFC81
:102F7000401B022801D9032060E79B4810380068F5
:102F8000C0F380000028F1D097480C38006820F486
:102F90007C304FF47C3292FAA2F2B2FA82F22169CA
:102FA0009140084390490C3908604AE0FFE7E06827
:102FB00068B38D481038006820F01900E1680843B4
:102FC000894910390860FEF7DFFB054606E0FEF789
:102FD000DBFB401B022801D903202FE78248103871
:102FE0000068C0F380000028F1D07F480C380068EA
:102FF00020F47C304FF47C3292FAA2F2B2FA82F2E0
:1030000021699140084378490C39086019E07648F5
:103010001038006820F00100734910390860FEF78D
:10302000B3FB054606E0FEF7AFFB401B022801D9C3
:10303000032003E76C4810380068C0F380000028C4
:10304000F1D1207800F01000102877D16648006890
:1030500000F0380008280CD06348006800F0380001
:10306000182823D160481830006800F003000128B8
:103070001CD15D4810380068C0F3002020B1E06921
:10308000802801D00120D9E657480C38006820F08C
:10309000F8404FF0F84292FAA2F2B2FA82F2216AB4
:1030A0009140084350490C39086047E0E06958B343
:1030B0004D481038006840F080004B4910390860D6
:1030C000FEF762FB054606E0FEF75EFB401B0228AA
:1030D00001D90320B2E6444810380068C0F300204C
:1030E0000028F1D040480C38006820F0F8404FF03C
:1030F000F84292FAA2F2B2FA82F2216A91400843AF
:1031000039490C39086019E037481038006820F058
:103110008000354910390860FEF736FB054606E0A9
:10312000FEF732FB401B022801D9032086E62E4819
:1031300010380068C0F300200028F1D1207800F09A
:103140000800082836D16069D0B12748643000688B
:1031500040F00100244964310860FEF715FB054684
:1031600006E0FEF711FB401B022801D9032065E6AB
:103170001D4864300068C0F340000028F1D019E019
:1031800019486430006820F0010017496431086074
:10319000FEF7FAFA054606E0FEF7F6FA401B0228AB
:1031A00001D903204AE6104864300068C0F34000AB
:1031B0000028F1D1207800F02000202834D1A06927
:1031C000D8B109481038006840F4805006491039D9
:1031D0000860FEF7D9FA054608E0FEF7D5FA401B6D
:1031E000022803D9032029E610440258AF4800689A
:1031F000C0F340300028F0D016E0AC48006820F45E
:103200008050AA490860FEF7BFFA054606E0FEF7BF
:10321000BBFA401B022801D903200FE6A34800682F
:10322000C0F340300028F2D1207800F004000428D8
:103230007DD19F48006840F480709D490860FEF78A
:10324000A3FA054606E0FEF79FFA401B642801D961
:103250000320F3E59648006800F480700028F2D05F
:1032600000BFA068012808D190487030006840F085
:1032700001008E49703108602DE0A06868B98B4864
:103280007030006820F001008849703108600846FD
:10329000006820F0040008601DE0A06805280DD13A
:1032A00082487030006840F0040080497031086046
:1032B0000846006840F0010008600CE07B48703070
:1032C000006820F001007949703108600846006804
:1032D00020F00400086000BFA068A0B1FEF754FA17
:1032E000054608E0FEF750FA401B41F2883188425B
:1032F00001D90320A2E56D4870300068C0F340009A
:103300000028EFD013E0FEF73FFA054608E0FEF78D
:103310003BFA401B41F28831884201D903208DE5F8
:10332000624870300068C0F340000028EFD1606A46
:1033300000287CD05D481030006800F03800182864
:1033400076D0606A022874D15848006820F08070F6
:1033500056490860FEF718FA054606E0FEF714FA2B
:10336000401B022801D9032068E550480068C0F3DB
:1033700040600028F2D100BFD4E90A1041EA0010F1
:103380004A492831096840F2F332914308434749DA
:1033900028310860208E401EC0F30800616B491E72
:1033A0004FF47E4202EA41210843218F491ED20197
:1033B00002EA014108433C21095D491E120202EA6A
:1033C0000161084339493031086000BF081D0068B9
:1033D0004FF6F87188434FF6F87292FAA2F2B2FAF9
:1033E00082F2A16C914008433049343108602F4883
:1033F0002C30006820F00C00216C08432B492C3144
:1034000008600846006820F00200616C0843274904
:103410002C3108600846006840F480300860084697
:10342000006840F4003008600846006802E03BE0B5
:1034300038E01FE040F4802008600846006840F053
:10344000010008601948006840F080701749086062
:10345000FEF79AF9054606E0FEF796F9401B0228AA
:1034600001D90320EAE411480068C0F34060002855
:10347000F2D019E00D48006820F080700B49086018
:10348000FEF782F9054606E0FEF77EF9401B0228AA
:1034900001D90320D2E405480068C0F34060002849
:1034A000F2D101E00120C9E40020C7E40044025841
:1034B00000480258042808D14FF0E021096941F082
:1034C00004014FF0E022116107E04FF0E0210969AB
:1034D00021F004014FF0E0221161704770B50446FD
:1034E0002546681EB0F1807F01D301200FE0681EE1
:1034F0004FF0E02148610F214FF0FF3002F064FFF0
:1035000000204FF0E021886107200861002070BD95
:103510007047704710B504460CB9012010BD94F8EF
:103520003D0028B9002084F83C00204600F00CF84B
:10353000022084F83D00211D206801F06FFE01206B
:1035400084F83D000020E9E738B5044627492068A3
:10355000884215D100BF2648006840F00800244981
:1035600008600846006800F00800009000BF00BF37
:10357000032201213220FEF75EF93220FEF74BF9DB
:103580002068B0F1804F15D100BF1948006840F0A5
:103590000100174908600846006800F0010000902B
:1035A00000BF00BF032201211C20FEF744F91C20AC
:1035B000FEF731F90F492068884215D100BF0C4849
:1035C000006840F020000A4908600846006800F0E2
:1035D0002000009000BF00BF032201213720FEF72A
:1035E0002AF93720FEF717F938BD0000000C00401B
:1035F000E84402580014004001460868C06840F0E2
:1036000001000A68D0600868008840F001000A687C
:10361000108000207047704710B50446206800698C
:10362000C0F34000D8B12068C068C0F34000B0B11A
:103630006FF002002168086101202077206880690E
:1036400000F0030018B12046FFF7E5FF05E0204633
:1036500000F0BEF8204600F00BFB00202077206829
:103660000069C0F38000D8B12068C068C0F3800052
:10367000B0B16FF004002168086102202077206853
:10368000806900F4407018B12046FFF7C4FF05E0E0
:10369000204600F09DF8204600F0EAFA002020774E
:1036A00020680069C0F3C000D8B12068C068C0F3CA
:1036B000C000B0B16FF008002168086104202077D5
:1036C0002068C06900F0030018B12046FFF7A3FF8F
:1036D00005E0204600F07CF8204600F0C9FA002002
:1036E000207720680069C0F30010D8B12068C06856
:1036F000C0F30010B0B16FF010002168086108201D
:1037000020772068C06900F4407018B12046FFF7A8
:1037100082FF05E0204600F05BF8204600F0A8FAA2
:10372000002020772068006900F0010058B120686F
:10373000C06800F0010030B16FF00100216808613D
:10374000204600F0CFFA20680069C0F3C01058B1DD
:103750002068C068C0F3C01030B16FF080002168ED
:1037600008612046FFF7D4FE20680069C0F30020FE
:1037700058B12068C068C0F3C01030B16FF080004D
:10378000216808612046FFF7C3FE20680069C0F386
:10379000801058B12068C068C0F3801030B16FF05D
:1037A000400021680861204600F0B8FA20680069EE
:1037B000C0F3401058B12068C068C0F3401030B169
:1037C0006FF02000216808612046FFF7A2FE10BDBF
:1037D000704770B504460D46164600BF94F83C008D
:1037E000012801D1022070BD012084F83C0000BFF7
:1037F000022084F83D000C2E51D005DC4EB1042E81
:103800001ED0082E7AD133E0102E60D0142EF9D1BC
:1038100075E02946206801F075FD2068806940F058
:103820000800216888612068806920F00400216810
:10383000886120688069296908432168886177E088
:103840002946206801F0B6FD2068806940F40060D8
:10385000216888612068806920F48060216888611F
:1038600020688069296940EA0120216888615FE059
:103870002946206801F0FCFD2068C06940F008007E
:103880002168C8612068C06920F004002168C8610F
:103890002068C069296908432168C86148E0294651
:1038A000206801F03FFE2068C06940F40060216894
:1038B000C8612068C06920F480602168C861206800
:1038C000C069296940EA01202168C86130E02946C1
:1038D000206801F063FE2068406D40F00800216818
:1038E00048652068406D20F0040021684865206824
:1038F000406D296908432168486519E017E02946A9
:10390000206801F083FE2068406D40F4006021686B
:1039100048652068406D20F4806021684865206813
:10392000406D296940EA01202168486500E000BF38
:1039300000BF012084F83D0000BF002084F83C0057
:1039400000BF00BF4FE710B504460CB9012010BD01
:1039500094F83D0028B9002084F83C00204600F08F
:103960000DF8022084F83D00211D206801F056FC6E
:10397000012084F83D000020E9E7000010B58CB07C
:103980000446B049206888422CD100BFAE48006888
:1039900040F00100AC4908600846006800F00100F2
:1039A000069000BF00BF00BFA7481038006840F075
:1039B0001000A549103908600846006800F01000A2
:1039C000069000BF00BF4FF4D4400790022008903B
:1039D000002009900A9001200B9007A99B48FDF751
:1039E000A7FD2CE19A492068884247D100BF96483C
:1039F0000838006840F0020093490839086008461A
:103A0000006800F00200019000BF00BF00BF8E48B8
:103A10001038006840F002008B49103908600846F1
:103A2000006800F00200019000BF00BF00BF084620
:103A3000006840F0010008600846006800F00100DE
:103A4000019000BF00BF03200790022008900020D3
:103A500009900A9002200B9007A97E48FDF768FDA7
:103A6000C0200290022003900020049005900220C4
:103A7000069002A97848FDF75BFDE0E077492068F1
:103A8000884248D100BF70480838006840F0040000
:103A90006D49083908600846006800F0040001908C
:103AA00000BF00BF00BF68481038006840F0020047
:103AB0006549103908600846006800F0020001906E
:103AC00000BF00BF00BF0846006840F00800086063
:103AD0000846006800F00800019000BF00BFC02049
:103AE000079002200890002009900A9002200B9075
:103AF00007A95848FDF71CFD4FF4404002900220F2
:103B000003900020049005900220069002A95448DA
:103B1000FDF70EFD93E05349206888422ED100BF87
:103B200049480838006840F04000474908390860B3
:103B30000846006800F04000069000BF00BF00BFCC
:103B400041481038006840F002003F4910390860D1
:103B50000846006800F00200069000BF00BF4FF466
:103B60004040079002200890002009900A9002200F
:103B70000B9007A93748FDF7DBFC60E03A49206865
:103B800088422BD100BF3048006840F480302E4975
:103B900008600846006800F48030069000BF00BF4F
:103BA00000BF29481038006840F01000264910393D
:103BB00008600846006800F01000069000BF00BFD3
:103BC0006020079002200890002009900A900420AD
:103BD0000B9007A91D48FDF7ABFC30E02349206896
:103BE00088422CD100BF1848006840F400301649C4
:103BF00008600846006800F40030069000BF00BF6F
:103C000000BF11481038006840F002000E4910391A
:103C100008600846006800F00200069000BF00BF80
:103C20004FF48070079002200890002009900A90BD
:103C300001200B9007A90748FDF77AFC00BF0CB0E4
:103C400010BD000000000140F0440258001002586E
:103C50000004004000040258000002580008004020
:103C6000000C025800180040004001400044014090
:103C70007047000030B504460D46012229462068F1
:103C800001F032FB1249206888420FD011492068A8
:103C900088420BD010492068884207D00F4920681D
:103CA000884203D00E492068884201D1012000E0FB
:103CB000002028B12068406C40F40040216848642E
:103CC0002068008840F0010021680880002030BD95
:103CD0000000014000040140004001400044014058
:103CE0000048014010B50446094884420ED103F053
:103CF00011FB03F06BFD074890ED000A0648D0ED7C
:103D0000000A30EE200A034880ED000A10BD0000D2
:103D1000D000002430000024380000247047704791
:103D2000704700002DE9F04104462068C56920680D
:103D300007682068866805F00F08B8F1000F0DD1FC
:103D400005F0200050B107F0200010B906F08050B7
:103D500020B1204601F087FDBDE8F081B8F1000FE9
:103D600072D05D48304018B907F4907000287AD0BE
:103D700005F0010048B107F4807030B101202168DE
:103D80000862E06F40F00100E06705F0020048B112
:103D900006F0010030B1022021680862E06F40F0B7
:103DA0000400E06705F0040048B106F0010030B1FE
:103DB000042021680862E06F40F00200E06705F02F
:103DC000080078B107F0200028B906F0805010B93B
:103DD00006F0010030B1082021680862E06F40F071
:103DE0000800E067E06F70B305F0200040B107F015
:103DF000200010B906F0805010B1204601F033FDCC
:103E0000E06F00F0080020B92068806800F04000F2
:103E100018B3204601F007FD2068806800F04000DC
:103E2000B8B12068806820F0400021688860606F29
:103E300058B12A48616F0865606FFDF72FF810B11F
:103E4000606F016D88470DE00DE02046FFF768FFC9
:103E500008E02046FFF764FF04E02046FFF760FF1C
:103E60000020E06778E705F4801078B106F4800060
:103E700060B14FF4801021680862202084F8790036
:103E800084F87A002046FFF74AFF65E705F08000D6
:103E900048B107F0800010B906F4000018B12046C0
:103EA00002F0F8F958E705F0400030B107F04000A3
:103EB00018B1204601F0C7FC4EE705F4000040B100
:103EC00007F0804028B12068006820F08040216819
:103ED000086000BF40E70000010000100F58000814
:103EE00010B504460CB9012010BDA06900B100E076
:103EF00000BF94F8790028B9002084F878002046A3
:103F000000F02AF8242084F879002068006820F066
:103F1000010021680860204601F0EAFC012800D178
:103F2000E2E7606B10B1204601F0C2FB20684068F8
:103F300020F49040216848602068806820F02A00C2
:103F4000216888602068006840F0010021680860EE
:103F5000204601F022FCC7E710B586B004461D4993
:103F60002068884233D100BF1B48006840F002003F
:103F7000194908600846006800F00200009000BF80
:103F800000BF00BF14480830006840F0804012496C
:103F9000083108600846006800F08040009000BFCB
:103FA00000BF1820019002200290012003900220FF
:103FB00004900B20059001A90848FDF7B9FA0322E7
:103FC00011465220FDF737FC5220FDF724FC06B0C5
:103FD00010BD000000780040E04402580004025880
:103FE00010B5034693F87A00202867D101B10AB9C9
:103FF000012010BD00BF93F87800012801D10220F4
:10400000F7E7012083F8780000BF5966A3F868201D
:10401000A3F86A2000BF9868B0F5805F0AD11869DC
:1040200020B940F2FF10A3F86C001CE0FF20A3F8B9
:104030006C0018E0986848B9186918B9FF20A3F80F
:104040006C0010E07F20A3F86C000CE09868B0F1E1
:10405000805F08D1186918B97F20A3F86C0002E0CE
:104060003F20A3F86C0000BF0020D867222083F80F
:104070007A0000BF002083F8780000BF18688068CD
:1040800040F001001C68A0601868006800F0005053
:1040900060B11868006840F480701C68206018687F
:1040A000806840F080501C68A06005E018680068D7
:1040B00040F490701C68206000209AE7022098E786
:1040C0007CB504462749206888424AD1606E10F8C2
:1040D000010C01909DF804000D2816D09DF80400F5
:1040E0000A2812D04FF6FF73012201A91E4800F0E2
:1040F00047F89DF804001D491D4A127888541C4851
:104100000078401C1A49087017E09DF804000D283B
:1041100013D100200BE06221154A12780244134BA0
:104120009954134909780144CDB2411CC8B21049D1
:104130000978C1F114018142EDDC132D11D1002069
:1041400000906B460B4A0CA1084806F05BFC09493D
:104150000868FCF729F9094908600020044908703B
:1041600000BF7CBD00780040AC0100242C0200247C
:1041700048000024400200242C0000003C000024E1
:104180002DE9F84304460D4616461F464FF0000938
:1041900094F87900202854D105B116B90120BDE862
:1041A000F88300BF94F87800012801D10220F6E7D7
:1041B000012084F8780000BF00206034E0612120F5
:1041C0006076FDF7E1FA814626806680603C21E05A
:1041D000B4F86200401EA4F862004B460022802121
:1041E0002046009702F097F808B10320D7E7A068AF
:1041F000B0F5805F0AD1206940B9A846B8F8000040
:10420000C0F3080021680885AD1C03E015F8010B18
:1042100021680885B4F862000028D9D14B460022F5
:1042200040212046009702F076F808B10320B6E757
:10423000202084F8790000BF002084F8780000BFB7
:10424000ADE70220ABE7704700BFFEE710B530488E
:10425000D0ED090AB0EE600A0920FCF7C9F92C4834
:10426000D0ED010AB0EE600A0120FCF7C1F9284840
:10427000D0ED050AB0EE600A0520FCF7B9F9244834
:10428000D0ED000AB0EE600A0020FCF7B1F920483A
:10429000D0ED040AB0EE600A0420FCF7A9F91C482E
:1042A000D0ED080AB0EE600A0820FCF7A1F9184822
:1042B000D0ED020AB0EE600A0220FCF799F914482A
:1042C000D0ED060AB0EE600A0620FCF791F910481E
:1042D000D0ED0A0AB0EE600A0A20FCF789F90C4812
:1042E000D0ED030AB0EE600A0320FCF781F908481C
:1042F000D0ED070AB0EE600A0720FCF779F9044810
:10430000D0ED0B0AB0EE600A0B20FCF771F910BD7E
:104310007C07002410B51448144908604FF440305D
:104320004860002111488160C160042101610021C1
:10433000017541750121816100210177016201212F
:10434000416200218162012180F838100903016374
:10435000002180F83910C162FCF7B8FB0022114639
:104360000248FCF755FB10BD00200240600200240B
:1043700010B50B480B4908604FF4165048600021F7
:1043800008488160C160016181610C214161FFF7D2
:10439000A7FD012204490348FFF722FE10BD0000DB
:1043A00000780040AC0100244600002400BFFEE776
:1043B000704770472DE9F04104460E4600274848F3
:1043C000006800F00300032802D10120BDE8F0815D
:1043D00043482838006820F0806041492839086047
:1043E000FDF7D2F9054606E0FDF7CEF9401B02289D
:1043F00001D90320EAE73A4828380068C0F3C060D2
:104400000028F1D100BF3648006820F47C302168D4
:1044100040EA013032490860A088401EC0F308001D
:10442000A168491E4FF47E4202EA41210843A18956
:10443000491ED20102EA01410843217C491E1202B1
:1044400002EA0161084326491031086000BF244890
:10445000001D006820F0C000616908432049091D63
:1044600008600846006820F02000A16908431C4944
:10447000091D08602EB90846006840F40020086055
:1044800012E0012E08D11648001D006840F480108B
:104490001349091D086007E01148001D006840F439
:1044A00000100F49091D08600D482838006840F0C9
:1044B00080600B4928390860FDF766F9054606E07B
:1044C000FDF762F9401B022801D903207EE704486A
:1044D00028380068C0F3C0600028F1D0384675E77E
:1044E000284402582DE9F04104460E46002748486A
:1044F000006800F00300032802D10120BDE8F0812C
:1045000043482838006820F0805041492839086025
:10451000FDF73AF9054606E0FDF736F9401B02289B
:1045200001D90320EAE73A4828380068C0F3407010
:104530000028F1D100BF3648006820F07C70218847
:1045400040EA015032490860A088401EC0F30800CC
:10455000A168491E4FF47E4202EA41210843A18925
:10456000491ED20102EA01410843217C491E120280
:1045700002EA0161084326491831086000BF244857
:10458000001D006820F44060616908432049091D4E
:1045900008600846006820F40070A16908431C49BF
:1045A000091D08602EB90846006840F480000860C4
:1045B00012E0012E08D11648001D006840F40000EA
:1045C0001349091D086007E01148001D006840F00C
:1045D00080700F49091D08600D482838006840F0B8
:1045E00080500B4928390860FDF7CEF8054606E0F3
:1045F000FDF7CAF8401B022801D903207EE70448D2
:1046000028380068C0F340700028F1D0384675E7BC
:104610002844025810B50023234C236000BF00BF7C
:1046200000BFBFF34F8F00BF00BF00BF231F18683C
:10463000C0F34E3100BFC0F3C90200BF43F6E073C0
:1046400003EA41134FF0404404EA82742343174CB9
:10465000236000BF00BF131EA2F10102EED10B1EAA
:10466000A1F10101E7D100BF00BF00BFBFF34F8F31
:1046700000BF00BF00BF0C4B703B1B6843F480338E
:10468000094C703C236000BF00BF00BFBFF34F8FD9
:1046900000BF00BF00BF00BF00BF00BFBFF36F8FF0
:1046A00000BF00BF00BF10BD84ED00E060EF00E080
:1046B00000BF00BF00BFBFF34F8F00BF00BF00BFF0
:1046C00000BF00BF00BFBFF36F8F00BF00BF00BFC0
:1046D00000201449086000BF00BF00BFBFF34F8F28
:1046E00000BF00BF00BF00BF00BF00BFBFF36F8FA0
:1046F00000BF00BF00BF0C48006840F400300A490A
:10470000086000BF00BF00BFBFF34F8F00BF00BFF6
:1047100000BF00BF00BF00BFBFF36F8F00BF00BF6F
:1047200000BF704750EF00E014ED00E0704700005C
:1047300010B50024E8E07748005D01287ED1764876
:10474000008800EE100AB8EE400B9FED741B20EEBF
:10475000010B9FED741B80EE012BB0EE040B32EECB
:10476000400B9FED721B20EE010BB7EEC00B7148A2
:1047700080ED030A7048008800EE100AB8EE400B86
:104780009FED661B20EE010B9FED661B80EE012B5B
:10479000B0EE040B32EE400B9FED641B20EE010BDC
:1047A000B7EEC00B634880ED010A6448008800EE54
:1047B000100AB8EE400B9FED591B20EE010B9FED48
:1047C000591B80EE012BB0EE040B32EE400B9FED37
:1047D000571B20EE010BB7EEC00B564880ED000AC8
:1047E0005748008800EE100AB8EE400B9FED4B1BB7
:1047F00020EE010B9FED4B2B80EE021BB0EE040B65
:1048000031EE400B9FED491B20EE010BB7EEC00BC4
:10481000484880ED020A00EB840090ED000A494808
:1048200080ED000A4848007800EE100AB8EE400A11
:104830004448D0ED000A30EE600A00E063E04348EF
:1048400080ED000A90ED000A06F03AF900200CE035
:104850003F4901EB800191ED000A3E49D1ED000A8C
:1048600030EE200A81ED000A401C0628F0DB3A48B1
:1048700090ED000A3548D0ED000A20EE200A3748B6
:10488000D0ED000A334890ED001A00EE810A2F485F
:10489000D0ED000A324890ED001A70EEC10A31489E
:1048A00090ED001A01EE200A2F4880ED000A2748FB
:1048B00090ED000A2A4880ED000A2B4890ED000A8E
:1048C0002048D0ED000A30EE200A80ED000A90ED7D
:1048D000000AF2EE040A30EE600AF0EE080A20EE5A
:1048E000200A224880ED000A90ED000ABCEEC00AC2
:1048F00010EE101A1E4800F0C3FE9FED1E0A154868
:1049000080ED000A03E0641C042CFFF614AF00BF26
:1049100010BD00008C0000244A0000246666666614
:1049200066660A40000000000000F0400000000041
:1049300000004940540700244C0000244E0000248D
:1049400050000024700000245C0000247400002447
:10495000640700247C0000248000002484000024DC
:104960007800002488000024600000246C000024EB
:10497000180400240000000000B587B000BF3948CB
:10498000006840F00400374908600846006800F0FD
:104990000400019000BF00BF41F2FF3002900120EF
:1049A0000390002004900220059002A92E48FCF7F5
:1049B000BFFD012211462C48FCF7E0FE0122022136
:1049C0002948FCF7DBFE012204212748FCF7D6FE2C
:1049D000012208212448FCF7D1FE0122102122489F
:1049E000FCF7CCFE012220211F48FCF7C7FE012264
:1049F00040211D48FCF7C2FE012280211A48FCF725
:104A0000BDFE012211021848FCF7B8FE0122510236
:104A10001548FCF7B3FE012211031348FCF7AEFE64
:104A200000BF1048006840F002000E4908600846C8
:104A3000006800F00200019000BF00BF4FF48070DA
:104A400002900120039000200490059002A90748DD
:104A5000FCF76EFD012211020448FCF78FFE07B03F
:104A600000BD0000E044025800080258000402584B
:104A700010B5002201211B48FCF780FE0022022114
:104A80001848FCF77BFE002204211648FCF776FE4E
:104A9000002208211348FCF771FE00221021114862
:104AA000FCF76CFE002220210E48FCF767FE002276
:104AB00040210C48FCF762FE002280210948FCF7E7
:104AC0005DFE00224FF480710648FCF757FE00227D
:104AD0004FF400710348FCF751FE4FF4FA70FCF7F5
:104AE00059FA10BD0008025810B5012211461A48A3
:104AF000FCF744FE012202211748FCF73FFE012289
:104B000004211548FCF73AFE012208211248FCF75F
:104B100035FE012210211048FCF730FE0122202131
:104B20000D48FCF72BFE012240210B48FCF726FE26
:104B3000012280210848FCF721FE012211020648CB
:104B4000FCF71CFE012251020348FCF717FE4FF44C
:104B5000FA70FCF71FFA10BD00080258B8EE080AF8
:104B6000174880ED080AB0EE080A80ED040AB0EE9E
:104B7000000A80ED000AB1EE040A80ED0A0AB8EEE0
:104B8000080A80ED060AB9EE040A80ED020AB8EEC2
:104B9000000A80ED090ABAEE000A80ED050AB8EEB7
:104BA000000A80ED010AB1EE040A80ED0B0AB1EEB5
:104BB0000C0A80ED070A9FED030A80ED030A704797
:104BC0007C070024000000002DE9F0419CB08046E5
:104BD0000C4615461E4600273548006820F00400A4
:104BE0003349086000BF0020009031480C30006855
:104BF00040F440402E490C3108600846006800F43B
:104C00004040009000BF00BF00BF29480C30006842
:104C100000F40050B0F5005FF7D1012001900004CE
:104C2000029000200490089002200A9002210B912B
:104C3000CDF834800C940E950F9600211291082126
:104C4000119101A8FEF7D4F807460FB100BFFEE7A7
:104C50003F201490032015900020169009201790F3
:104C6000002019901A9018901B90022114A8FDF7AB
:104C70002DFE07460FB100BFFEE70E48006840F06A
:104C800080000C49086000BF0A48F430006840F01A
:104C900002000849F43108600846006800F002008C
:104CA000009000BF00BFFCF789F91CB0BDE8F0819F
:104CB0000C4802580044025810B5FCF76BFD10BDBB
:104CC0002048006840F470001E4908601E480068D3
:104CD00040F001001C49086000201B4910310860A9
:104CE000194800681949084017490860002016490A
:104CF00018310860091D0860091D08601249283133
:104D00000860091D0860091D0860091D0860091D6B
:104D10000860091D0860091D0860091D08600A482F
:104D2000006820F4802008490860002006496031AE
:104D30000860012006490860C00602498039086001
:104D40007047000088ED00E0004402587FEDF6EA6D
:104D50000881005170B504460D463048304908605E
:104D60000846456000218160C4600161FEF7EBFDEB
:104D700060202C490860204604EBD0714910294A74
:104D80005160002011468860602027490860204655
:104D900004EBD0714910244A51600020114688600C
:104DA000602022490860204604EBD07149101F4A58
:104DB000516000201146886060201D49086020462F
:104DC00004EBD07149101A4A5160002011468860E6
:104DD000002214491248FEF7FCFC00211048FEF79F
:104DE00049FF042210490E48FEF7F3FC04210C4849
:104DF000FEF740FF08220D490948FEF7EAFC0821AA
:104E00000748FEF737FF0C2209490548FEF7E1FC89
:104E10000C210348FEF72EFF70BD00000018004073
:104E200098030024A8050024C4050024E0050024FC
:104E3000FC05002470B504460D461B481B4908605C
:104E40000846456000218160C4600161FEF77BFD7A
:104E5000602017490860204604EBD0714910144ABD
:104E60005160002011468860602012490860204689
:104E700004EBD07149100F4A516000201146886040
:104E800000220B490948FEF7A4FC00210748FEF761
:104E9000F1FE042207490548FEF79BFC0421034864
:104EA000FEF7E8FE70BD000000400140D80300247A
:104EB000180600243406002470B504460D46104838
:104EC000104908600846456000218160C4600161A6
:104ED000FEF739FD70200C490860204604EBD071C4
:104EE0004910094A51600020114688600022054897
:104EF000FEF76FFC00210348FEF7BCFE70BD00000A
:104F000000440140180400245006002470B50446F3
:104F10000D463048304908600846456000218160F0
:104F2000C4600161FEF70FFD60202C490860204637
:104F300004EBD0714910294A516000201146886065
:104F4000602027490860204604EBD0714910244AAC
:104F50005160002011468860602022490860204688
:104F600004EBD07149101F4A51600020114688603F
:104F700060201D490860204604EBD07149101A4A90
:104F80005160002011468860002214491248FEF743
:104F900020FC00211048FEF76DFE042210490E4847
:104FA000FEF717FC04210C48FEF764FE08220D49A9
:104FB0000948FEF70EFC08210748FEF75BFE0C22AD
:104FC00009490548FEF705FC0C210348FEF752FE8F
:104FD00070BD000000000140D802002458040024E5
:104FE0007404002490040024AC04002410B502488A
:104FF000FEF712FB10BD00001001002470B504463E
:105000000D463048304908600846456000218160FF
:10501000C4600161FEF797FC60202C4908602046BF
:1050200004EBD0714910294A516000201146886074
:10503000602027490860204604EBD0714910244ABB
:105040005160002011468860602022490860204697
:1050500004EBD07149101F4A51600020114688604E
:1050600060201D490860204604EBD07149101A4A9F
:105070005160002011468860002214491248FEF752
:10508000A8FB00211048FEF7F5FD042210490E4848
:10509000FEF79FFB04210C48FEF7ECFD08220D49AA
:1050A0000948FEF796FB08210748FEF7E3FD0C22AE
:1050B00009490548FEF78DFB0C210348FEF7DAFD90
:1050C00070BD00000004004018030024C804002440
:1050D000E4040024000500241C05002410B5024847
:1050E000FEF79AFA10BD00005803002470B504467C
:1050F0000D4630483049086008464560002181600F
:10510000C4600161FEF71FFC60202C490860204646
:1051100004EBD0714910294A516000201146886083
:10512000602027490860204604EBD0714910244ACA
:1051300051600020114688606020224908602046A6
:1051400004EBD07149101F4A51600020114688605D
:1051500060201D490860204604EBD07149101A4AAE
:105160005160002011468860002214491248FEF761
:1051700030FB00211048FEF77DFD042210490E4847
:10518000FEF727FB04210C48FEF774FD08220D49A9
:105190000948FEF71EFB08210748FEF76BFD0C22AD
:1051A00009490548FEF715FB0C210348FEF762FD8F
:1051B00070BD00000008004058030024380500249A
:1051C00054050024700500248C05002410B5024805
:1051D000FEF722FA10BD0000D000002470B505468D
:1051E0000C46074807490860084644600021816072
:1051F000C5600161FEF78EF90248FEF7FDF970BD4A
:10520000000C0040D000002410B50248FEF704FA5C
:1052100010BD0000500100247047000010B50022AE
:105220000288294B98420ED0B0F1804F0BD0274B0B
:10523000984208D0264B984205D0264B984202D07F
:10524000254B984203D122F070024B681A431E4B43
:10525000984217D0B0F1804F14D01C4B984211D017
:105260001B4B98420ED01B4B98420BD01A4B9842C6
:1052700008D01A4B984205D0194B984202D0194BCE
:10528000984203D122F44072CB681A4322F0800383
:105290004C6943EA040202808B68C3620B88038571
:1052A000094B98420BD00C4B984208D00B4B9842BC
:1052B00005D00B4B984202D00A4B984201D10B8A81
:1052C00003860123436110BD00000140000400403B
:1052D00000080040000C0040000401400040014074
:1052E000004401400048014030B50023012404FA85
:1052F00001F3046A9C430462046A02FA01F52C4338
:10530000046230BD30B5002400220023056A25F078
:1053100001050562026A43688469204D2C4024F02F
:1053200003040D682C4322F002028D682A431C4DB1
:10533000A84200D10FE01B4DA84200D10BE01A4D4E
:10534000A84200D107E0194DA84200D103E0184D52
:10535000A84206D100BF22F00802CD682A4322F0FD
:1053600004020F4DA8420BD00E4DA84208D00E4D9E
:10537000A84205D00D4DA84202D00D4DA84207D13C
:1053800023F4807323F400734D692B438D692B4301
:10539000436084614D684563026230BD8FFFFEFF4C
:1053A0000000014000040140004001400044014071
:1053B0000048014030B5002400220023056A25F092
:1053C00010050562026A43688469234D2C4024F469
:1053D00040740D6844EA052422F020028D6842EAF8
:1053E00005121E4DA84200D10FE01D4DA84200D16C
:1053F0000BE01C4DA84200D100BF1B4DA84200D1BC
:1054000000BF1A4DA84207D106E022F08002CD6805
:1054100042EA051222F04002104DA8420BD0104D76
:10542000A84208D00F4DA84205D00F4DA84202D087
:105430000E4DA84209D123F4806323F400634D6923
:1054400043EA85038D6943EA8503436084614D68BF
:105450008563026230BD0000FF8FFFFE0000014047
:105460000004014000400140004401400048014068
:1054700030B5002400220023056A25F480750562FA
:10548000026A4368C46924F0700424F003040D68C0
:105490002C4322F400728D6842EA05221C4DA8427A
:1054A00000D10FE01B4DA84200D10BE01A4DA842DD
:1054B00000D100BF194DA84200D100BF184DA8422D
:1054C00007D106E022F40062CD6842EA052222F408
:1054D00080620F4DA8420BD00E4DA84208D00E4D51
:1054E000A84205D00D4DA84202D00D4DA84209D1C9
:1054F00023F4805323F400534D6943EA05138D6967
:1055000043EA05134360C4614D68C563026230BD60
:1055100000000140000401400040014000440140FF
:105520000048014030B5002200230024056A25F41C
:1055300080550562036A4468C26922F4E04222F49D
:1055400040720D6842EA052223F400538D6843EA55
:1055500005330D4DA8420BD00C4DA84208D00C4D80
:10556000A84205D00B4DA84202D00B4DA84204D151
:1055700024F480444D6944EA85144460C2614D6856
:105580000564036230BD00000000014000040140DA
:1055900000400140004401400048014030B5002374
:1055A00000220024056A25F480350562026A4468F9
:1055B000436D23F070030D682B4322F400320D89F4
:1055C00042EA05420C4DA8420BD00C4DA84208D02F
:1055D0000B4DA84205D00B4DA84202D00A4DA8425F
:1055E00004D124F480344D6944EA052444604365C1
:1055F0004D688565026230BD000001400004014035
:1056000000400140004401400048014030B5002204
:1056100000230024056A25F480150562036A4468A6
:10562000426D22F4E0420D6842EA052223F40013A1
:105630000D8943EA05530D4DA8420BD00C4DA842ED
:1056400008D00C4DA84205D00B4DA84202D00B4DFE
:10565000A84204D124F400344D6944EA852444600E
:1056600042654D68C565036230BD00000000014021
:105670000004014000400140004401400048014056
:105680000268516370470268916370470268D16392
:105690007047000010B50448FEF744FB012203499F
:1056A0000148FEF79DFC10BDAC010024470000241A
:1056B00090F8341001F0010139B10168496821F412
:1056C0000031826B11430268516090F8341001F090
:1056D000020139B10168496821F48031C26B11437C
:1056E0000268516090F8341001F0040139B101688A
:1056F000496821F48021026C11430268516090F8DE
:10570000341001F0080139B10168496821F4004101
:10571000426C11430268516090F8341001F010019E
:1057200039B10168896821F48051826C11430268A3
:10573000916090F8341001F0200139B10168896856
:1057400021F40051C26C11430268916090F834104A
:1057500001F0400199B10168496821F48011026D9E
:10576000114302685160016DB1F5801F07D10168D6
:10577000496821F4C001426D11430268516090F8FC
:10578000341001F0800139B10168496821F4002129
:10579000826D114302685160704738B50446002598
:1057A0000020E067FBF7F0FF05462068006800F086
:1057B000080008280CD16FF07E402B4600224FF4E1
:1057C00000110090204600F0A6FD08B1032038BD6E
:1057D0002068006800F0040004280CD16FF07E40BF
:1057E0002B4600224FF480010090204600F093FDEC
:1057F00008B10320EBE7202084F8790084F87A00D0
:1058000000BF002084F8780000BF00BFDFE770B55C
:105810000546AC6B0020A4F86A00A4F8620020469C
:10582000FEF77EFA70BD0168096821F49071026884
:1058300011600168896821F00101026891602021EE
:1058400080F87A10704710B504462068006820F090
:10585000400021680860202084F879002046FEF787
:10586000F2FC002010BD2DE9F0410446B4F86C7044
:1058700094F87A00222833D12068858CA068B0F58E
:10588000805F09D1206938B9666E05EA070030806B
:10589000606E801C606605E0F8B22840626E511CA4
:1058A00061661070B4F86A00401E80B2A4F86A0005
:1058B000A0B92068006820F4907021680860206812
:1058C000806820F0010021688860202084F87A0038
:1058D0002046FEF7F5FB0020BDE8F0810020FBE745
:1058E0002068008B40F00800216808830220F3E75D
:1058F0002DE9F04F89B0044600254FF08008A946F5
:10590000AA4600200890FA492068884201D1012067
:1059100000E0002000B100E000BFA06AB0F1005F2D
:1059200000D100BF2169A068084361690843E169AB
:1059300040EA0105A06A054320680068ED49084077
:105940002843216808602068406820F44050E168DE
:10595000084321684860A569E5492068884201D16B
:10596000012000E0002008B9206A0543A06AB0F1D8
:10597000005F03D1D4E90B01084305432068806828
:10598000DD4908402843216888602068C06A20F00B
:105990000F00616A08432168C86200BFD7492068C8
:1059A000884224D1D648006800F03800182814D066
:1059B00005DC48B108280AD0102817D10AE02028B1
:1059C0000ED0282812D10EE04FF001080EE04FF063
:1059D00004080BE04FF0400808E04FF0080805E02D
:1059E0004FF0100802E04FF0200800BF17E1C54952
:1059F000206888421DD1C248006800F007000628D0
:105A000016D2DFE800F00306090C0F124FF0000871
:105A10000EE04FF004080BE04FF0400808E04FF0B4
:105A2000080805E04FF0100802E04FF0200800BF22
:105A3000F5E0B549206888421DD1B148006800F002
:105A40000700062816D2DFE800F00306090C0F1243
:105A50004FF000080EE04FF004080BE04FF0400854
:105A600008E04FF0080805E04FF0100802E04FF0A2
:105A7000200800BFD3E0A549206888421DD1A04876
:105A8000006800F00700062816D2DFE800F00306E1
:105A9000090C0F124FF000080EE04FF004080BE065
:105AA0004FF0400808E04FF0080805E04FF01008FC
:105AB00002E04FF0200800BFB1E09549206888421D
:105AC0001DD18F48006800F00700062816D2DFE8D5
:105AD00000F00306090C0F124FF000080EE04FF023
