:020000040800F2
:10000000F80B0024AD020008194F0008B14D00089C
:10001000154F000889070008238F00080000000022
:1000200000000000000000000000000079530008FC
:10003000A9070008000000001B4F000845780008D1
:10004000C7020008C7020008C7020008C70200086C
:10005000C7020008C7020008C7020008C70200085C
:10006000C7020008C7020008C7020008C70200084C
:10007000C7020008C7020008C7020008C70200083C
:10008000C7020008C7020008C7020008C70200082C
:10009000C7020008C7020008C7020008C70200081C
:1000A000C7020008C7020008C7020008C70200080C
:1000B000797B0008C7020008A97C0008C702000875
:1000C000C7020008C7020008C7020008C7020008EC
:1000D000C7020008C7020008C7020008C7020008DC
:1000E000C7020008C702000800000000C70200089D
:1000F000C7020008C7020008B97D0008C70200084F
:10010000C7020008C7020008997D0008C70200085E
:10011000C7020008C7020008C7020008A97D00083E
:10012000C7020008C7020008C7020008C70200088B
:10013000C7020008C7020008C7020008C70200087B
:1001400000000000000000000000000000000000AF
:10015000C7020008C7020008C7020008C70200085B
:10016000C7020008C7020008C7020008C70200084B
:10017000C7020008C7020008C7020008000000000C
:10018000C7020008C702000835820008C70200083D
:10019000C7020008C7020008C7020008C70200081B
:1001A000C7020008C7020008C7020008C70200080B
:1001B000C7020008C7020008C7020008C7020008FB
:1001C000C7020008C7020008C7020008C7020008EB
:1001D000C7020008C7020008C7020008C7020008DB
:1001E000C7020008C7020008C7020008C7020008CB
:1001F000C7020008C7020008C7020008C7020008BB
:10020000C7020008C7020008C7020008C7020008AA
:10021000C7020008C7020008C7020008C70200089A
:10022000C7020008C7020008C7020008000000005B
:10023000C7020008C702000800000000C70200084B
:10024000C7020008C7020008C7020008C70200086A
:10025000C7020008C7020008C7020008C70200085A
:10026000C7020008C7020008C7020008C70200084A
:10027000C7020008C7020008C7020008000000000B
:10028000C702000800000000C702000800000000CC
:1002900000000000C7020008DFF80CD000F0E8F80A
:1002A00000480047F99F0008F80B002406488047E3
:1002B00006480047FEE7FEE7FEE7FEE7FEE7FEE74B
:1002C000FEE7FEE7FEE7FEE74D780008990200082A
:1002D0002DE9F05F0546002092469B46884606467B
:1002E000814640241BE0284641464746224600F00E
:1002F00077F853465A46C01A914110D31146184612
:10030000224600F05EF82D1A67EB01084F462246A0
:100310000120002100F055F817EB00094E41201E86
:10032000A4F10104DFDC484631462A464346BDE8D5
:10033000F09FD2B201E000F8012B491EFBD27047BA
:100340000022F6E710B513460A4604461946FFF7A1
:10035000F0FF204610BD421C10F8011B0029FBD104
:10036000801A704770B50F4D00B92868002412E05C
:100370000A4602E09E4203D0521C1378002BF9D1AA
:10038000DAB2224305D02BB124B1002100F8011BC1
:1003900004E00446401C0678002EE9D1286020467F
:1003A00070BD0000D800002470B5064608F0F0FDCE
:1003B000046805460A220021304600F021F82C602E
:1003C00070BD202A04DB203A00FA02F100207047B9
:1003D0009140C2F1200320FA03F319439040704783
:1003E000202A04DB203A21FA02F00021704721FA8A
:1003F00002F3D040C2F120029140084319467047F1
:100400002DE9F04791460F4680460446002614F831
:10041000015B2DB100F03EF80068405DC007F6D1E9
:100420002B2D02D02D2D18D0641E4A463946204669
:1004300000F034F827B13968A14201D1C7F8008033
:1004400071054FF002040BD54042002803DD08F08F
:100450009FFD0460A007BDE8F08746F48066E4E7EE
:100460000028F8DA08F094FD04606FF00040F2E72D
:10047000064C074D06E0E06840F0010394E80700F1
:1004800098471034AC42F6D3FFF70AFF50F6000845
:1004900070F60008004870474CF600082DE9F05F40
:1004A00082460078002715468B460AF10104B946BA
:1004B000302801D09DB113E014F8010B01277828F2
:1004C00003D0582801D045B10AE00DB1102D07D155
:1004D0000027102514F8010B02E0082500E00A258A
:1004E0000026B0460EE005FB080005FB06F10127DB
:1004F00001EB10461FFA80F8B6F5803F00D3B946ED
:1005000014F8010B294600F018F80028EBDABBF1CB
:10051000000F05D00FB1641E00E05446CBF8004038
:10052000B9F1000F06D008F033FD02210160C81EAA
:10053000BDE8F09F48EA0640FAE73A2800D2303892
:1005400020F02002412A01D3A2F13700884201D3D2
:100550004FF0FF30704770B5044600252068806872
:1005600000F00300012806D12068006800F00100B7
:1005700008B1012000E0002080B32068806800F00E
:100580000D00012800D100E0002050B100BF20681C
:10059000806840F0020021688860032021680860BC
:1005A00009E0606D40F010006065A06D40F0010052
:1005B000A065012070BD01F095FE05460FE001F039
:1005C00091FE401B02280AD9606D40F01000606562
:1005D000A06D40F00100A0650120EBE705E0206878
:1005E000806800F001000028E9D10020E2E7000067
:1005F00070B5044600252068806800F003000128DB
:1006000006D12068006800F0010008B1012000E078
:10061000002088BB206880681C49084008B9012078
:1006200000E0002048B9606D40F010006065A06DEA
:1006300040F00100A065012070BD2068806840F096
:1006400001002168886001F04DFE054615E0206834
:10065000806840F001002168886001F043FE401B83
:1006600002280AD9606D40F010006065A06D40F06E
:100670000100A0650120DFE705E02068006800F0C8
:1006800001000028E3D00020D6E700003F000080F2
:1006900070B52DED028BB0EE408A04460025B7EE12
:1006A000C81A9FED302B9FED310B01EE020BBDEE12
:1006B000C00B10EE100A05B2012C04D129462D48BA
:1006C00007F0AEFD4AE0052C04D12946294807F081
:1006D000AAFD43E0092C04D12946264807F0A6FDCF
:1006E0003CE0032C04D12946234807F099FD35E06E
:1006F000072C04D12946204807F095FD2EE00B2C4D
:1007000004D129461D4807F08BFD27E024B929466E
:100710001B4807F085FD21E0042C04D12946184828
:1007200007F081FD1AE0082C04D12946144807F08F
:100730007DFD13E0022C04D12946124807F070FD1C
:100740000CE0062C04D129460E4807F06CFD05E0AC
:100750000A2C03D129460B4807F068FDBDEC028B3B
:1007600070BD00003D0AD7A3703D16400000000098
:100770000070874068030024A8030024E8030024D5
:10078000E80200242803002400BFFEE710B504F0AF
:10079000B5FD04F065FD0348006840F00400014920
:1007A000086010BD9CEF00E0704700002DE9F041AB
:1007B00088B004460D4616461F46DDF838802448AA
:1007C00001F05FFA2348224908600020886008464B
:1007D000C0F80C800021017441748174446185610A
:1007E000C661076241638163C1630321016404211F
:1007F0004164002101658165C16501210166002117
:1008000041660421816601F04FFA18B1012008B059
:10081000BDE8F0814FF08040009000200190022060
:10082000029001200390002004900590694608483A
:1008300001F0D2F908B10220E9E7054801F0D8FB40
:1008400000220121024801F071F90020DFE70000D9
:100850007C06002400A0004010B50146486BC86625
:100860000868D0F884004FF6FC739843CB6E40EADA
:1008700083000B68C3F884000868D0F8840020F473
:100880007F03088F43EA00400B68C3F88400CB6EF7
:10089000886B03440B670868D0F888004FF6FC7338
:1008A00098430B6F40EA83000B68C3F88800086820
:1008B000D0F8880020F47F03888F43EA00400B685B
:1008C000C3F888000B6FC86B03EB40034B670868E5
:1008D000D0F8A0004FF6FC7398434B6F40EA8300BA
:1008E0000B68C3F8A0000868D0F8A00020F4FE034D
:1008F0004020405A43EA00400B68C3F8A000D1E909
:1009000010404B6F04FB00338B670868D0F8B000D1
:1009100020F0FC03886F43EA80000B68C3F8B00046
:100920000868D0F8B00020F4FE03B1F8480043EAAC
:1009300000400B68C3F8B000D1E912408B6F04FB94
:100940000033CB670868D0F8AC0020F0FC03C86F18
:1009500043EA80000B68C3F8AC00D1E91440CB6FC8
:1009600004FB0033802043500868D0F8F0004FF6B5
:10097000FC73984380235B5840EA83000B68C3F8FC
:10098000F0000868D0F8F00020F47C13B1F85800AB
:1009900043EA00400B68C3F8F00080204358886D9C
:1009A00003EB4003842043500868D0F8C00020F0D7
:1009B000FC038420405843EA80000B68C3F8C00061
:1009C0000868D0F8C00020F47C13B1F85C0043EA5A
:1009D00000400B68C3F8C00084204358CC6D886E7B
:1009E00004FB0033882043500868D0F8C00020F092
:1009F0007C5391F8600043EA00600B68C3F8C000C4
:100A0000294B486B03EB8000C866CB6E886B03EB09
:100A100080030B670B6FC86B03EBC0034B67D1E917
:100A2000100358434B6F03EB80038B67D1E912032C
:100A300058438B6F03EB8003CB67D1E91403584312
:100A4000CB6F03EB8003802043504358886D03EB4A
:100A5000C003842043508B6EC86D584384235B5879
:100A600003EB8003882043508B6E086E5843882325
:100A70005B5803EB80039020435040580B4B984247
:100A800007D9D1F8980040F02000C1F89800012063
:100A900010BDCA6E02E000201060121D9020405868
:100AA0009042F8D80020F3E700AC0040FCB50040CD
:100AB00030B587B005460C46009401200190052012
:100AC000029000200390049005906946074800F0CA
:100AD00085F8064800F0E2FE0A21044800F008FE0E
:100AE000024800F0E7FB80B207B030BD700200247E
:100AF0002DE9F04180460F4614460025002606E009
:100B000039460648FFF7D4FF0544701CC6B2A6421A
:100B1000F6DBB5FBF4F080B2BDE8F0817002002492
:100B20002DE9F04104460D4616460027B84600BFA1
:100B300094F85000012802D10220BDE8F081012084
:100B400084F8500000BF2046FFF705FD0746CFBBE5
:100B5000606D20F4885040F0020060652068806875
:100B600020F080403043216888602068806820F44D
:100B700080302843216888602068806840F0004009
:100B80002168886011E008F10108B8F57A4F0CD3AC
:100B9000606D20F0020040F01000606500BF002092
:100BA00084F8500000BF0120C7E72068806800F08B
:100BB00000400028E7D1606D20F0020040F0010005
:100BC000606504E0FFE7606D40F01000606500BF05
:100BD000002084F8500000BF3846AEE7F8B5024662
:100BE00000250020009092F83900012800D100E093
:100BF00000BFC868B0F1804F00D00AE0FE4E106818
:100C0000B04200D105E0FD4E1068B04200D100E0D6
:100C100000BF00BF92F85000012801D10220F8BDAA
:100C2000012082F8500000BF10688068C0F3800087
:100C300000287DD11068C0690F780126BE4030437E
:100C40001668F061486805281CD21068066B0879A0
:100C50004FF4F86797FAA7F7B7FA87F778431F2793
:100C6000874026EA07000F794FF4F86C9CFAACFC39
:100C7000BCFA8CFC07FB0CF70E68BE4030431668CC
:100C8000306363E048680A281ED21068466B087912
:100C9000401F4FF4F86797FAA7F7B7FA87F778433A
:100CA0001F27874026EA07000E79761F4FF4F86C5D
:100CB0009CFAACFCBCFA8CFC06FB0CF60F68B74047
:100CC00038431668706341E048680F281ED21068E8
:100CD000866B08790A384FF4F86797FAA7F7B7FADE
:100CE00087F778431F27874026EA07000E790A3ED8
:100CF0004FF4F86C9CFAACFCBCFA8CFC06FB0CF6CE
:100D00000F68B74038431668B0631FE01068C66BC1
:100D100008790F384FF4F86797FAA7F7B7FA87F70B
:100D200078431F27874026EA07000E790F3E00E030
:100D3000A5E24FF4F86C9CFAACFCBCFA8CFC06FB08
:100D40000CF60F68B74038431668F0631068806887
:100D500000F00C0008B1012000E00020002874D150
:100D600008680A281DD31068866908780A38382769
:100D700097FAA7F7B7FA87F778430727874026EA55
:100D800007000E780A3E4FF0380C9CFAACFCBCFA17
:100D90008CFC06FB0CF68F68B74038431668B061D0
:100DA00019E0106840690E78382797FAA7F7B7FA64
:100DB00087F77E430727B740B8430F784FF0380CCA
:100DC0009CFAACFCBCFA8CFC07FB0CF78E68BE40AE
:100DD00030431668706148691668F668C6F3820683
:100DE000760000FA06F40869012806D002282DD002
:100DF000032854D0042874D17BE01068006E00F002
:100E000000464FF0F84797FAA7F7B7FA87F7086850
:100E1000B84020430643106806661068006920F455
:100E200000600E7E304316683061487E30B1106835
:100E3000006E40F000401668306605E01068006EF5
:100E400020F0004016683066CDE0CDE01068406EBE
:100E500000F000464FF0F84797FAA7F7B7FA87F780
:100E60000868B84020430643106846661068006969
:100E700020F480500E7E40EA460016683061487EBD
:100E800030B11068406E40F000401668706605E0B2
:100E90001068406E20F0004016687066A3E010688D
:100EA000806E00F000464FF0F84797FAA7F7B7FAC0
:100EB00087F70868B84020430643106886661068C4
:100EC000006920F400500E7E40EA8600166830610A
:100ED000487E38B11068806E40F000401668B066F9
:100EE00006E02FE01068806E20F000401668B066C3
:100EF00079E01068C06E00F000464FF0F84797FAAE
:100F0000A7F7B7FA87F70868B84020430643106888
:100F1000C6661068006920F480400E7E40EAC60074
:100F200016683061487E30B11068C06E40F00040F5
:100F30001668F06605E01068C06E20F00040166884
:100F4000F06650E01068006E00F0F8464FF0F84789
:100F500097FAA7F7B7FA87F70868B840864205D12D
:100F60001068006E20F00040166830661068406E11
:100F700000F0F8464FF0F84797FAA7F7B7FA87F767
:100F80000868B840864205D11068406E20F00040E5
:100F9000166870661068806E00F0F8464FF0F847EB
:100FA00097FAA7F7B7FA87F70868B840864205D1DD
:100FB0001068806E20F000401668B0661068C06E41
:100FC00000F0F8464FF0F84797FAA7F7B7FA87F717
:100FD0000868B840864205D11068C06E20F0004015
:100FE0001668F06600BF00BF1068806800F003005C
:100FF00001280BD1106803E0006002580020024075
:10100000006800F0010008B1012000E00020002885
:101010007ED1C868B0F1804F0AD01068D0F8C00007
:101020000F780126BE40B0431668C6F8C00047E0FE
:101030001068D0F8C0000F780126BE403043166813
:10104000C6F8C000086809281DD3106886690878AA
:101050000938382797FAA7F7B7FA87F778430727A9
:10106000874026EA07000E78093E4FF0380C9CFABC
:10107000ACFCBCFA8CFC06FB0CF68F68B74038431E
:101080001668B0611CE0106846690878401C382773
:1010900097FAA7F7B7FA87F778430727874026EA32
:1010A00007000E78761C4FF0380C9CFAACFCBCFAAA
:1010B0008CFC06FB0CF68F68B740384316687061ED
:1010C000754E1068B04203D0744E1068B04201D122
:1010D000734B00E0734B0868122803D1986800F442
:1010E000000070B10868112803D1986800F0807082
:1010F00038B1086813288BD1986800F48000002864
:1011000086D11068806800F00300012808D100E053
:10111000AEE01068006800F0010008B1012000E0B6
:10112000002000287ED15C4E1068B04222D15B487E
:101130000830006800F00300012806D15748006815
:1011400000F0010008B1012000E0002070B956480D
:10115000806800F00300012806D15348006800F0C1
:10116000010008B1012000E0002008B1012049E0A1
:10117000002047E0494E1068B04221D146488068BF
:1011800000F00300012806D14348006800F0010088
:1011900008B1012000E0002070B94348806800F0E9
:1011A0000300012806D14048006800F0010008B1A2
:1011B000012000E0002008B101200FE000200DE038
:1011C0003548806800F00300012806D132480068E5
:1011D00000F0010008B1012000E0002078B92F489C
:1011E0000830006800F00300012806D12B48006891
:1011F00000F0010008B1012000E0002008B101204A
:1012000000E0002070B9086812281AD1264E106834
:10121000B04216D1986840F40000986023480068F6
:10122000234E00E025E0B0FBF6F0C0EB0010C0005C
:10123000009002E00098401E009000980028F9D12C
:1012400022E00868112808D1174E1068B04204D176
:10125000986840F08070986016E00868132813D1F1
:10126000114E1068B0420FD1986840F48000986029
:101270000AE0506D40F020005065012504E0506DFB
:1012800040F020005065012500BF002082F850008A
:1012900000BF2846C3E400000020024000210240B5
:1012A000002302400063025800600258000000243E
:1012B00080841E0001460868006C7047F8B504463B
:1012C00000270026002000900CB90120F8BDE0683E
:1012D00018B1207F012800D100BF606D30B92046D1
:1012E00000F098F90020A06584F85000206880681C
:1012F00000F0005028B12068806820F0005021687C
:1013000088602068806800F08050A8B920688068F4
:1013100040F0805021688860B5480068B549B0FB4E
:10132000F1F000EB80004000009002E00098401EC9
:10133000009000980028F9D12068806800F0805063
:1013400040B9606D40F010006065A06D40F0010094
:10135000A0650127606D00F0100000286FD12068A3
:101360008068C0F380000028F8D1606D40F0020072
:101370006065A1492068884203D0A049206888425E
:1013800001D19F4D00E09F4D2068806800F0030070
:10139000012806D12068006800F0010008B1012092
:1013A00000E00020002877D193492068884222D1AC
:1013B00092480830006800F00300012806D18F48E9
:1013C000006800F0010008B1012000E0002070B9C1
:1013D0008D48806800F00300012806D18A48006823
:1013E00000F0010008B1012000E0002008B1012058
:1013F0004BE0002049E081492068884222D17E48A4
:10140000806800F00300012806D17B48006800F0E6
:10141000010008B1012000E0002070B97A4880681E
:1014200000F00300012806D17748006800F00100B1
:1014300008B1012000E0002010B1012010E0D0E050
:1014400000200DE06C48806800F00300012806D100
:101450006948006800F0010008B1012000E00020A8
:1014600078B966480830006800F00300012806D10A
:101470006248006800F0010008B1012000E000208F
:1014800010B1012001E007E0002028B9A86820F48D
:101490007C1061680843A860607D4FF4005191FAA8
:1014A000A1F1B1FA81F18840216B0843A16808439A
:1014B000217F4FF4803292FAA2F2B2FA82F2914086
:1014C00040EA0106207F012809D1206A401E4FF41E
:1014D000602191FAA1F1B1FA81F188400643606A76
:1014E000012805D0A06A18B1D4E9090108430643D0
:1014F0002068C0684549084030432168C8602068BA
:10150000806800F00C0008B1012000E0002070BBF2
:10151000207D4FF4804191FAA1F1B1FA81F1884028
:10152000E16A40EA01062068C06844F2030188438A
:1015300030432168C86094F83900012818D1606AE6
:10154000012801D0A06A00B900BFA08F012141EAA3
:101550000041206C0843616C0843A16C084321687A
:1015600009692B4A114008432168086106E01EE022
:101570002068006920F00100216808612068006986
:1015800020F07040616B08432168086194F83800CE
:10159000012806D12068806840F480702168886046
:1015A00005E02068806820F4807021688860E06829
:1015B000012809D12068006B20F00F00A169491EA5
:1015C00008432168086305E02068006B20F00F00E5
:1015D00021680863606D20F0020040F00100606542
:1015E00004E0606D40F010006065012738466DE64C
:1015F0000000002480841E000020024000210240E0
:1016000000230240006302580060025803C0F0FF4C
:101610001EF800FC10B58CB00446142107A8FEF794
:101620008FFE2F492068884227D100BF2D480068CF
:1016300040F020002B4908600846006800F02000B8
:10164000019000BF00BF00BF26480830006840F08E
:1016500001002449083108600846006800F00100D4
:10166000019000BF00BF1F200790032008900020BA
:10167000099007A91C4800F009FD00BF194808306F
:10168000006840F008001749083108600846006803
:1016900000F00800019000BF00BF0F200290012061
:1016A0000390002004900220059002A90F4800F04A
:1016B000EDFC002201210D4800F00EFE0022022167
:1016C0000A4800F009FE00220421084800F004FE48
:1016D00000220821054800F0FFFD0CB010BD0000FD
:1016E00000200240D844025800000258000C025862
:1016F0002DE9F05F04460D464FF000090027B8467B
:101700004FF0010B2069082801D108273FE05F490D
:101710002068884203D05E492068884214D15D4821
:10172000006800F01F0068B15A48006800F01F0010
:10173000052807D05748006800F01F00092801D08D
:10174000012002E0002000E0002058B92068C068B5
:1017500000F00100D0B1606D40F020006065012014
:10176000BDE8F09F4B4E083EB06800F44040B0F535
:10177000004F05D0B06800F44040B0F5404F05D1AF
:10178000606D40F0200060650120E9E7042700F06B
:10179000A9FD814613E0681C88B12DB100F0A2FDBF
:1017A000A0EB0900A8420AD9606D40F00400606512
:1017B00000BF002084F8500000BF0320D0E720685D
:1017C000006838400028E6D02068006800F0080073
:1017D00008B94FF0000B2D492068884203D02E49EC
:1017E0002068884201D1012013E02A48006800F0F7
:1017F0001F0058B12748006800F01F00052805D0D9
:101800002448006800F01F00092801D1012000E0F1
:10181000002018B12068D0F80C800DE01B4920682A
:10182000884203D01C492068884201D1206800E02A
:1018300016488246DAF80C80082F03D10820216868
:10184000086005E008F4804010B9042021680860B1
:10185000606D40F400706065BBF1000F13D020682C
:10186000C06800F4406070B908F4005058B9606D69
:1018700020F480706065606D00F4805018B9606D70
:1018800040F00100606500206AE70000002002408F
:1018900000210240082302400060025870B504464F
:1018A000002520688068C0F38000002872D100BF46
:1018B00094F85000012801D1022070BD012084F865
:1018C000500000BF2046FEF793FE0546002D70D164
:1018D000606D00F4805020B1A06D20F00600A0657E
:1018E00001E00020A065606D40F60161884340F48E
:1018F000807060653C492068884203D03B4920687D
:10190000884201D1012007E03948006800F01F003B
:1019100008B9012000E0002018B1606D20F48010AB
:1019200060651C20216808602F492068884203D028
:1019300030492068884201D1012013E02C4800681A
:1019400000F01F0058B12A48006800F01F00052869
:1019500005D02748006800F01F00092801D10120A8
:1019600000E00020B8B12068C06800F0007028B125
:10197000606D20F4005040F48050606500BF00208E
:1019800084F8500000BF2068806840F0040021689F
:10199000886026E024E0606D40F4801060651249A4
:1019A0002068884203D013492068884202D1206809
:1019B00001E010E00C480646F06800F0007028B125
:1019C000606D20F4005040F48050606500BF00203E
:1019D00084F8500005E000BF002084F8500000E0CB
:1019E0000225284669E7000000200240002102404D
:1019F000082302400060025810B504460CB90120CB
:101A000010BD94F83500022803D0802060650120C5
:101A1000F6E734492068884205D333492068884274
:101A200001D8012000E00020C0B1042084F8350076
:101A30002C49206888420AD32B492068884206D85E
:101A40002068006820F001002168086048E02068F4
:101A5000006820F001002168086041E0206800680B
:101A600020F00E00216808601E49206888420AD3D1
:101A70001D492068884206D82068006820F00100CF
:101A80002168086005E02068006820F001002168F6
:101A90000860206E006820F48070216E086094F861
:101AA0005C100120884011490860D4E91910486091
:101AB000E06E40B1E06E006820F48070E16E086076
:101AC000D4E91C10486000BF002084F8340000BF37
:101AD000012084F83500206D10B12046216D884723
:101AE00000208DE710000240B80402400454025860
:101AF00070B5044600F0F6FB06462546681C10B19A
:101B000004480078054400BF00F0ECFB801BA842AD
:101B1000FAD370BD140000240348006840F00100AF
:101B200001490860704700002004005810B50346C2
:101B300093F89400012803D093F8940002283ED132
:101B40001868806D084030B91868C06D40F0010019
:101B50001C68E0650EE01868806D0840884206D178
:101B60001868C06D40F002001C68E06502E00320C8
:101B70001C68E06501F4007030B11868D0F8E0002E
:101B800010431C68C4F8E00001F4806030B11868AC
:101B9000D0F8E40010431C68C4F8E40000BF1868E3
:101BA000406D0B4C0C4020431C6860650948006880
:101BB00040EA9170074C206000BF002010BDD3F8B0
:101BC000980040F00200C3F898000120F6E70000FA
:101BD000FFFFCF3F14A8004070B5024692F8940072
:101BE000012803D092F89400022842D1C86807283F
:101BF00000D100BF086818BBC868072800D000BF24
:101C0000C86807280BD1088A4FF0605646EA0040A2
:101C1000CE6940EA06208E6940EA06030AE0087AA7
:101C200080070E7B40EAC6600E8A40EA06404E6995
:101C300040EA0603D66E486806EB8004236016E08F
:101C4000C868072800D000BF0E7B086940EA4673C9
:101C5000C868072801D18D6903E00E7A486940EA17
:101C60008675166F486806EBC00408C4256000201E
:101C700070BDD2F8980040F00200C2F89800012030
:101C8000F6E710B504460CB9012010BD204600F05F
:101C9000C9F9204600F060F90020C4F8980084F8E3
:101CA000940000BFF1E7000070B5044600250CB9B0
:101CB000012070BDA6492068884203D1206800F544
:101CC00080706060A068B0F5407F00D100BF206CDC
:101CD00000B100BFA06C00B100BF206D00B100BF1B
:101CE000206E00B100BFD4E91710084400B100BF56
:101CF00094F8940028B9002084F89500204600F05C
:101D000039F92068806920F010002168886100F0AE
:101D1000E9FA05460EE000F0E5FA401B0A2809D969
:101D20009434606840F001006060032004F8940976
:101D30000120BEE72068806900F008000828EAD08A
:101D40002068806940F001002168886100F0CAFACB
:101D500005460EE000F0C6FA401B0A2809D9943463
:101D6000606840F001006060032004F894090120DD
:101D70009FE72068806900F001000028EAD0206811
:101D8000806940F0020021688861207C012806D12A
:101D90002068806920F040002168886105E02068A3
:101DA000806940F0400021688861607C012806D18C
:101DB0002068806940F480402168886105E02068DF
:101DC000806920F4804021688861A07C012806D1C8
:101DD0002068806920F480502168886105E02068CF
:101DE000806940F48050216888612068806920F40F
:101DF0004070A168084321688861E068012806D125
:101E00002068806940F004002168886120E0E06873
:101E1000F0B1E068022815D02068806940F08000A9
:101E2000216888612068006940F01000216808611D
:101E3000E06803280CD12068806940F02000216808
:101E4000886105E02068806940F020002168886191
:101E5000207E401E4106E069401E41EA0020216AC2
:101E6000491E0843A18A491E40EA01402168C86111
:101E7000A068B0F5407F0FD1A06A401EE16A491EFC
:101E800040EA0121206B401E41EA0011A08C401E57
:101E900041EA00402168C860206E38B12068D0F85F
:101EA000C000616E08432168C1F8C000D4E9171072
:101EB000084458B12068D0F8C80020F00700254A2F
:101EC000A16E515C08432168C1F8C800206C58B16C
:101ED0002068D0F8BC0020F007001E4A616C515CFD
:101EE00008432168C1F8BC00A06C60B12068D0F83C
:101EF000BC0020F07001174AE06C105C41EA001051
:101F00002168C1F8BC00206D60B12068D0F8BC0029
:101F100020F4E0610F4A606D105C41EA0020216806
:101F2000C1F8BC000A492068884205D16068806811
:101F300020F00300616888602046FEF78DFC0020D9
:101F4000C4F89800012084F894000020B1E6000055
:101F500000A0004050F300080549096841F4807171
:101F6000034A11601146096821F4807111607047BD
:101F70009444025810B5B6B0044600BF1A48006831
:101F800040F48070184908600846006800F48070CA
:101F9000019000BF00BF00BF13480C38006840F03C
:101FA000010011490C3908600846006800F0010082
:101FB000019000BF00BF4FF40040029040031D900D
:101FC00002A800F095FC4FF4C050319002203290EE
:101FD0000120339034900920359031A9034800F056
:101FE00055F836B010BD0000EC440258000002580D
:101FF000014691F8940001280CD1022081F8940048
:102000000868806920F001000A6890610020C1F82A
:1020100098007047D1F8980040F00400C1F898008B
:102020000120F6E70146002291F89400022825D10C
:102030000868806940F001000B6898610DE0104667
:10204000521C0A2809D99431486840F001004860C0
:10205000032001F89409012070470868806900F0A6
:1020600001000028EBD00868806940F002000B688E
:102070009861012081F894000020EDE7D1F89800E4
:1020800040F00800C1F898000120E5E7F8B50246E5
:102090000B460021002600240020824D00BFFCE0FA
:1020A000012707FA01F61F6807EA0604B4427CD14B
:1020B0005F68022F02D05F68122F1AD14FEAD10C4D
:1020C00002F1200757F82C004F074FEAD76C0F2773
:1020D00007FA0CF7B8434FEA417C4FEADC6C1F6902
:1020E00007FA0CF738434FEAD10C02F1200747F802
:1020F0002C0010684FEA410C032707FA0CF7B8438D
:102100001F7907F003074FEA410C07FA0CF7384331
:1021100010605F68012F08D05F68022F05D05F68EC
:10212000112F02D05F68122F17D190684FEA410C2F
:10213000032707FA0CF7B8434FEA410CDF6807FAA8
:102140000CF738439060506801278F40B8431F79DF
:10215000C7F300178F4038435060D0684FEA410CF6
:10216000032707FA0CF7B8434FEA410C9F6807FAB8
:102170000CF73843D0605F6807F08057B7F1805F95
:1021800095D100BF484F3F6847F00207DFF818C1FC
:10219000CCF8007067463F6807F00207009700BF61
:1021A00000BF424F4FEA910C00E075E057F82C0059
:1021B0008F074FEA177C0F2707FA0CF7B8433C4FFD
:1021C000BA4201D100272DE03A4FBA4201D101278E
:1021D00028E0394FBA4201D1022723E0374FBA42F3
:1021E00001D103271EE0364FBA4201D1042719E07E
:1021F000344FBA4201D1052714E0334FBA4201D11E
:1022000006270FE0314FBA4201D107270AE0304FCD
:10221000BA4201D1082705E02E4FBA4201D1092761
:1022200000E00A274FEA817C4FEA1C7C07FA0CF792
:1022300038431E4F4FEA910C47F82C002868A04302
:102240005F6807F48037B7F5803F00D120432860EE
:102250006868A0435F6807F40037B7F5003F00D116
:10226000204368604FF0B0473868A0435F6807F4C8
:102270008017B7F5801F00D120434FF0B04738607A
:102280007868A0435F6807F40017B7F5001F00D116
:1022900020434FF0B0477860491C1029FFF400AF8D
:1022A000F8BD000080000058F444025808040058AB
:1022B000000002580004025800080258000C02589E
:1022C000001002580014025800180258001C02584E
:1022D00000200258002402580AB1018300E0418323
:1022E0007047000001480068704700000C0000249F
:1022F00003480068034909780844014908607047A9
:102300000C0000241400002410B5032000F07EF817
:102310000F2000F007F808B1012010BD00F028F8E8
:102320000020FAE770B504460E4800784FF47A7141
:10233000B1FBF0F00C490968B1FBF0F5284601F05B
:102340007BFE08B1012070BD102C07D2002221466F
:10235000501E00F01EF80548046001E00120F2E77D
:102360000020F0E7140000240000002410000024E6
:10237000704701460846002809DB00F01F030122D0
:102380009A4043099B0003F1E023C3F8002100BFFA
:1023900070472DE9F05F80460D46164606F0DCFDDD
:1023A000074639462A46334601F00700C0F1070ABE
:1023B000BAF1040F02D94FF0040A01E0C0F1070A94
:1023C000D14600F1040ABAF1070F02D24FF0000A19
:1023D00001E0A0F1030AD4464FF0010A0AFA09FA13
:1023E000AAF1010A0AEA020A0AFA0CFA4FF0010BF2
:1023F0000BFA0CFBABF1010B0BEA030B4AEA0B04E3
:102400002146404606F0B0FDBDE8F09F00BF00F059
:102410000702064B19684FF6FF031940044B0B43A4
:1024200043EA0221014B196000BF70470CED00E048
:102430000000FA0510B501F067F90949096801F4CF
:1024400070614FF4807292FAA2F2B2FA82F2D14035
:10245000044A515CC840044908600846006810BD41
:1024600018440258D0F200080000002410B501F012
:1024700003F90749096801F07001102292FAA2F2EB
:10248000B2FA82F2D140034A515CC84010BD00004C
:1024900020440258D0F2000870B501460022012005
:1024A000002300249FED811AB0EE410A9FED7F1AB0
:1024B000F0EE410A7E4D2D6805F003027C4D2D683B
:1024C000C5F305307A4D2D1D2D6805F01003784DAC
:1024D00014352D68C5F3CC0515FB03F501EE105A34
:1024E000B8EE411AB0EE410A22B1012A4DD0022ABB
:1024F0007DD169E06E4D283D2D68C5F340152DB3A3
:102500006B4D283D2D68C5F3C1066A4D25FA06F4CA
:10251000B4FBF0F501EE105AF8EE411A9FED661A81
:1025200080EE012A624D10352D68C5F3080501EED5
:10253000105AB8EE411A32EE011AB7EE002A31EE07
:10254000021A21EE811AF0EE410A1DE0594DB5FB49
:10255000F0F501EE105AF8EE411A9FED571A80EE91
:10256000012A534D10352D68C5F3080501EE105AA8
:10257000B8EE411A32EE011AB7EE002A31EE021A15
:1025800021EE811AF0EE410A5EE04C4DB5FBF0F50C
:1025900001EE105AB8EE412A9FED471AC0EE011A1B
:1025A000434D10352D68C5F3080501EE105AB8EEFD
:1025B000411A31EE811AF7EE001A31EE211A22EE9D
:1025C000011AF0EE410A3FE03D4DB5FBF0F501EE9A
:1025D000105AF8EE411A9FED381A80EE012A344D58
:1025E00010352D68C5F3080501EE105A00E00CE027
:1025F000B8EE411A32EE011AB7EE002A31EE021A95
:1026000021EE811AF0EE410A1EE02C4DB5FBF0F5EB
:1026100001EE105AB8EE412A9FED271AC0EE011ABA
:10262000234D10352D68C5F3080501EE105AB8EE9C
:10263000411A31EE811AF7EE001A31EE211A22EE1C
:10264000011AF0EE410A00BF00BF194D10352D6888
:10265000C5F346256D1C01EE105AB8EE411AC0EEC6
:10266000811ABCEEE11A81ED001A114D10352D686A
:10267000C5F306456D1C01EE105AB8EE411AC0EEC6
:10268000811ABCEEE11A81ED011A094D10352D6851
:10269000C5F306656D1C01EE105AB8EE411AC0EE86
:1026A000811ABCEEE11A81ED021A70BD0000000033
:1026B000284402580090D0030000004600093D0065
:1026C00040787D0170B501460022012000230024DE
:1026D0009FED811AB0EE410A9FED7F1AF0EE410A9C
:1026E0007E4D2D6805F003027C4D2D68C5F3055025
:1026F0007A4D2D1D2D6805F48073784D1C352D689D
:10270000C5F3CC0515FB03F501EE105AB8EE411ADE
:10271000B0EE410A22B1012A4DD0022A7DD169E0F2
:102720006E4D283D2D68C5F340152DB36B4D283DEA
:102730002D68C5F3C1066A4D25FA06F4B4FBF0F521
:1027400001EE105AF8EE411A9FED661A80EE012A4A
:10275000624D18352D68C5F3080501EE105AB8EE24
:10276000411A32EE011AB7EE002A31EE021A21EEBA
:10277000811AF0EE410A1DE0594DB5FBF0F501EE6E
:10278000105AF8EE411A9FED571A80EE012A534D68
:1027900018352D68C5F3080501EE105AB8EE411A38
:1027A00032EE011AB7EE002A31EE021A21EE811A3A
:1027B000F0EE410A5EE04C4DB5FBF0F501EE105A2B
:1027C000B8EE412A9FED471AC0EE011A434D183565
:1027D0002D68C5F3080501EE105AB8EE411A31EE26
:1027E000811AF7EE001A31EE211A22EE011AF0EEEC
:1027F000410A3FE03D4DB5FBF0F501EE105AF8EE11
:10280000411A9FED381A80EE012A344D18352D6893
:10281000C5F3080501EE105A00E00CE0B8EE411ACD
:1028200032EE011AB7EE002A31EE021A21EE811AB9
:10283000F0EE410A1EE02C4DB5FBF0F501EE105A0A
:10284000B8EE412A9FED271AC0EE011A234D183524
:102850002D68C5F3080501EE105AB8EE411A31EEA5
:10286000811AF7EE001A31EE211A22EE011AF0EE6B
:10287000410A00BF00BF194D18352D68C5F3462524
:102880006D1C01EE105AB8EE411AC0EE811ABCEE72
:10289000E11A81ED001A114D18352D68C5F3064572
:1028A0006D1C01EE105AB8EE411AC0EE811ABCEE52
:1028B000E11A81ED011A094D18352D68C5F3066539
:1028C0006D1C01EE105AB8EE411AC0EE811ABCEE32
:1028D000E11A81ED021A70BD000000002844025880
:1028E0000090D0030000004600093D0040787D01C3
:1028F0002DE9F041044600250026206800F0006024
:10290000B0F1006F30D1606E48B1B0F5801F0DD0CE
:10291000B0F5001F10D0B0F5401F15D113E0F948F5
:10292000006840F40030F74908600FE00221201DE4
:1029300002F0F4FA054609E0022104F1240002F055
:1029400085FB054602E001E0012500BF00BF55B947
:10295000EC482430006820F44010616E0843E949D7
:102960002431086000E02E43208800F48070B0F528
:10297000807F2DD1606D05281AD2DFE800F0030AB0
:1029800010171800DF48006840F40030DD49086087
:1029900010E00021201D02F0C1FA05460AE00021E6
:1029A00004F1240002F052FB054603E002E001E0DE
:1029B000012500BF00BF55B9D2482430006820F07F
:1029C0000700616D0843CF492431086000E02E43C1
:1029D000208800F40070B0F5007F33D1A06D80280E
:1029E00017D003DC40B140281CD10CE0C02817D020
:1029F000B0F5807F16D114E0C248006840F4003082
:102A0000C049086010E00021201D02F087FA054649
:102A10000AE0002104F1240002F018FB054603E05F
:102A200002E001E0012500BF00BF55B9B5482430E0
:102A3000006820F4E070A16D0843B24924310860B9
:102A400000E02E43208800F48060B0F5806F38D11C
:102A5000D4F8A400B0F5800F19D004DC50B1B0F563
:102A6000001F1DD10DE0B0F5C00F17D0B0F5000F5D
:102A700016D114E0A348006840F40030A149086072
:102A800010E00021201D02F049FA05460AE000216D
:102A900004F1240002F0DAFA054603E002E001E066
:102AA000012500BF00BF5DB996482C30006820F4B6
:102AB0006000D4F8A410084392492C31086000E06B
:102AC0002E43208800F40060B0F5006F38D1D4F8B0
:102AD000A800B0F1007F19D004DC50B1B0F1807FC4
:102AE0001DD10DE0B0F1407F17D0B0F1806F16D14D
:102AF00014E08448006840F400308249086010E027
:102B00000021201D02F00AFA05460AE0002104F126
:102B1000240002F09BFA054603E002E001E00125F3
:102B200000BF00BF5DB977482C30006820F0E0603E
:102B3000D4F8A810084373492C31086000E02E43F4
:102B4000206800F00070B0F1007F27D1A06CA0B128
:102B5000102804D0202809D030280FD10CE0694873
:102B6000006840F400306749086009E00221201D38
:102B700002F0D4F9054603E002E001E0012500BFC0
:102B800000BF55B95F482030006820F03000A16CCC
:102B900008435C492031086000E02E43208800F49F
:102BA0008050B0F5805F36D1E06DB0F5005F19D090
:102BB00004DC50B1B0F5805F1DD10DE0B0F5405F91
:102BC00017D0B0F5804F16D114E04E48006840F49D
:102BD00000304C49086010E00021201D02F09EF9F1
:102BE00005460AE0002104F1240002F02FFA054610
:102BF00003E002E001E0012500BF00BF55B94148F4
:102C00002430006820F4E040E16D08433D49243160
:102C1000086000E02E43208800F40050B0F5005F0B
:102C200034D1206EB0F5403F1DD007DC68B1B0F55F
:102C3000803F0BD0B0F5003F18D10DE0B0F5802FEC
:102C400012D0B0F5A02F11D10FE011E00121201D0D
:102C500002F064F905460BE0012104F1240002F0C2
:102C6000F5F9054604E003E002E001E0012500BFBC
:102C700000BF55B923482430006820F4E020216EBD
:102C8000084320492431086000E02E43208800F4E6
:102C90008040B0F5804F38D1D4F8AC00B0F1405F3F
:102CA0001DD007DC68B1B0F1805F0BD0B0F1005FE0
:102CB00018D10DE0B0F1804F12D0B0F1A04F11D17A
:102CC0000FE011E00121201D02F028F905460BE07C
:102CD000012104F1240002F0B9F9054604E003E003
:102CE00002E001E0012500BF00BF6DB905482C30AE
:102CF000006820F0E040D4F8AC10084301492C31C2
:102D0000086002E02C4402582E43208800F4004062
:102D1000B0F5004F26D1E06E98B1B0F1805F03D0DE
:102D2000B0F1005F0ED106E0FA48006840F40030D0
:102D3000F849086008E00121201D02F0EFF805467F
:102D400002E001E0012500BF00BF55B9F148243081
:102D5000006820F04050E16E0843EE4924310860DD
:102D600000E02E43206800F08070B0F1807F27D112
:102D7000606CA0B1012804D0022809D003280FD12B
:102D80000CE0E448006840F40030E249086009E0E3
:102D90000221201D02F0C2F8054603E002E001E036
:102DA000012500BF00BF55B9DA482030006820F087
:102DB0000300616C0843D7492031086000E02E43CE
:102DC000206800F48000B0F5800F7DD1D248006803
:102DD00040F48070D0490860FFF784FA074606E0A7
:102DE000FFF780FAC01B642801D9032505E0CA4813
:102DF000006800F480700028F2D000BF8DBBC54889
:102E00004430006800F44070B4F8B01001F4407130
:102E1000884214D0BF484430006820F44078BD4850
:102E20004430006840F48030BA49443108600846B4
:102E3000006820F4803008600846C0F80080D4F8AC
:102E4000B000B0F5807F15D1FFF74CFA074609E0D6
:102E5000FFF748FAC01B41F28831884202D90325A6
:102E600007E038E0AB4844300068C0F34000002879
:102E7000EED000BF4DBB00BFB4F8B00000F440700E
:102E8000B0F5407F0ED1A3481C38006820F47C5177
:102E9000A24AD4F8B000104041EA10109D491C39F4
:102EA000086007E09B481C38006820F47C50994972
:102EB0001C390860974844300068B4F8B010C1F37A
:102EC0000B010843934901E006E002E04431086049
:102ED00002E02E4300E02E43207800F0010068B3AA
:102EE000A06F182819D005DC48B1082808D0102890
:102EF00016D10BE0202811D0282811D10FE011E0C5
:102F00000121201D02F00AF805460BE0012104F121
:102F1000240002F09BF8054604E003E002E001E033
:102F2000012500BF00BF55B97A482830006820F05D
:102F30003800A16F084377492831086000E02E432C
:102F4000207800F00200022828D1606F062815D2F0
:102F5000DFE800F003040A11121311E00121201D23
:102F600001F0DCFF05460BE0012104F1240002F032
:102F70006DF8054604E003E002E001E0012500BF32
:102F800000BF55B963482830006820F00700616F22
:102F9000084360492831086000E02E43207800F0A3
:102FA000040004282AD1D4F89000062815D2DFE8BE
:102FB00000F003040A11121311E00121201D01F099
:102FC000ADFF05460BE0012104F1240002F03EF8BC
:102FD000054604E003E002E001E0012500BF00BF78
:102FE0005DB94C482C30006820F00700D4F89010F0
:102FF000084348492C31086000E02E43207800F057
:103000002000202836D1D4F88C00B0F1405F1DD0CC
:1030100007DC68B1B0F1805F0BD0B0F1005F18D170
:103020000DE0B0F1804F12D0B0F1A04F11D10FE000
:1030300011E00021201D01F071FF05460BE0022187
:1030400004F1240002F002F8054604E003E002E087
:1030500001E0012500BF00BF5DB92E48283000689F
:1030600020F0E040D4F88C1008432A492831086049
:1030700000E02E43207800F04000402836D1D4F8FC
:103080009800B0F5406F1DD007DC68B1B0F5806FD7
:103090000BD0B0F5006F18D10DE0B0F5805F12D005
:1030A000B0F5A05F11D10FE011E00021201D01F06B
:1030B00035FF05460BE0022104F1240001F0C6FFB4
:1030C000054604E003E002E001E0012500BF00BF87
:1030D0005DB910482C30006820F4E050D4F8981006
:1030E00008430C492C31086000E02E43207800F0A2
:1030F000800080283BD1D4F89C00B0F5C04F24D08C
:103100000EDCA0B1B0F5005F12D0B0F5804F1FD13A
:1031100014E000002C44025800480258FFFCFF0F46
:10312000B0F5004F12D0B0F5204F11D10FE011E0F3
:103130000021201D01F0F2FE05460BE0022104F102
:10314000240001F083FF054604E003E002E001E013
:10315000012500BF00BF4DB9B248006820F46040AF
:10316000D4F89C100843AF49086000E02E43207853
:1031700000F00800082816D1D4F88000B0F5805F70
:1031800006D1022104F1240001F060FF06430AE0A9
:10319000A448001F006820F44050D4F88010084371
:1031A000A049091F0860207800F01000102814D1F1
:1031B000D4F89400B0F5807F06D1022104F12400F8
:1031C00001F044FF064308E09648006820F4407090
:1031D000D4F89410084393490860206800F4002054
:1031E000B0F5002F26D1D4F8A00030B1B0F5803F63
:1031F00009D0B0F5003F0ED10CE00021201D01F0F8
:103200008DFE054609E0022104F1240001F01EFFB5
:10321000054602E001E0012500BF00BF4DB981482D
:10322000006820F44030D4F8A01008437D490860BD
:1032300000E02E43206800F48020B0F5802F2DD1CF
:10324000D4F88400B0F5801F06D0B0F5001F0CD074
:10325000B0F5401F11D10FE072482C38006840F4DF
:10326000003070492C39086009E0012104F1240084
:1032700001F0ECFE054602E001E0012500BF00BFC1
:103280005DB96848001F006820F44010D4F884102D
:1032900008436449091F086000E02E43206800F4D9
:1032A0008030B0F5803F24D1E06C18B1B0F5803F9C
:1032B0000FD108E05B482C38006840F400305949D1
:1032C0002C39086007E00221201D01F027FE054689
:1032D00001E0012500BF00BF55B952480C38006815
:1032E00020F48030E16C08434E490C39086000E05E
:1032F0002E43206800F00050B0F1005F05D102219C
:1033000004F1240001F0A2FE0643206800F400301E
:10331000B0F5003F27D1E06FA0B1B0F5807F06D0B7
:10332000B0F5007F0CD0B0F5407F0CD109E03D48EE
:103330002C38006840F400303A492C39086004E029
:1033400003E002E001E0012500BF00BF55B93548A8
:10335000001F006820F44070E16F08433149091FE5
:10336000086000E02E43206800F48010B0F5801F54
:1033700009D12C480838006820F00040216F08432C
:10338000284908390860206800F08050B0F1805F5B
:103390000AD124484838006820F48040D4F8B4109A
:1033A0000843204948390860206800F40010B0F54F
:1033B000001F09D11B480838006820F08070A16EFA
:1033C0000843184908390860206800F08040B0F1CF
:1033D000804F11D100BF13484838006820F40040E6
:1033E00010494839086008460068D4F8B810084306
:1033F0000C494839086000BF206800F00040B0F177
:10340000004F09D107480C38006820F04050216D6A
:10341000084304490C39086016B90020BDE8F08162
:103420000120FBE75844025870B504460D460026BB
:103430008D48006800F00700A8420ED28A48006854
:1034400020F007002843884908600846006800F01B
:103450000700A84201D0012070BD207800F00200D2
:10346000022807D18148006820F00F00E168084376
:103470007E490860207800F00100002851D07B4888
:10348000006820F47060A1680843784908606068AB
:10349000022807D1754818380068C0F34040F8B9D1
:1034A0000120D9E76068032807D170481838006800
:1034B000C0F34060A0B90120CEE76068012807D1C1
:1034C0006A4818380068C0F3002048B90120C3E7F3
:1034D000664818380068C0F3800008B90120BBE7CF
:1034E00062480838006820F00700616808435F49B7
:1034F00008390860FEF7F6FE06466068022811D11A
:1035000008E0FEF7EFFE801B41F28831884201D9C6
:103510000320A1E755480838006800F0380010285B
:10352000EFD13AE06068032811D108E0FEF7DAFE37
:10353000801B41F28831884201D903208CE74B4837
:103540000838006800F038001828EFD125E06068DE
:10355000012811D108E0FEF7C5FE801B41F2883139
:10356000884201D9032077E740480838006800F016
:1035700038000828EFD110E008E0FEF7B3FE801B0A
:1035800041F28831884201D9032065E7374808387D
:10359000006800F038000028EFD13348006800F0E0
:1035A0000700A8420ED93048006820F007002843E1
:1035B0002D4908600846006800F00700A84201D0C5
:1035C000012049E7207800F00400042807D12748AB
:1035D000006820F0700021690843244908602078C1
:1035E00000F00800082809D12048001D006820F0DC
:1035F0007000616908431D49091D0860207800F0CA
:103600001000102809D11948001D006820F4E0605E
:10361000A16908431549091D0860207800F02000C1
:10362000202809D111480830006820F07000E169B5
:1036300008430E490831086000F066F80B49096834
:1036400001F470614FF4807292FAA2F2B2FA82F23F
:10365000D140074A515CC840064908600F20FEF778
:1036600061FE0020F8E600000020005218440258D5
:10367000D0F200080000002410B5FEF7DBFE094977
:10368000096801F00F01012292FAA2F2B2FA82F265
:10369000D140054A515CC8400449086008460068AA
:1036A00010BD000018440258D0F2000804000024A5
:1036B00010B5FFF7E1FF0749096801F0700110221A
:1036C00092FAA2F2B2FA82F2D140034A515CC840A7
:1036D00010BD00001C440258D0F2000810B5FFF7DE
:1036E000CBFF0749096801F4E0614FF4807292FA58
:1036F000A2F2B2FA82F2D140024A515CC84010BD37
:103700001C440258D0F2000870B5012500EE905A12
:103710000022012100230024DFED861AB0EE610AA9
:10372000DFED841AB0EE611A0020834D2D6805F09C
:10373000380535B1082D15D0102D15D0182D7CD198
:1037400014E07D4D103D2D68C5F3401545B17A4D0F
:10375000103D2D68C5F3C106784D25FA06F000E04E
:103760007648E5E07648E3E07648E1E0724D1835CA
:103770002D6805F00302704D18352D68C5F305114D
:103780006D4D1C352D6805F001036B4D24352D68FA
:10379000C5F3CC0515FB03F501EE905AF8EE611A5E
:1037A000B0EE610A22B1012A4FD0022A7DD16BE02E
:1037B000614D103D2D68C5F340152DB35E4D103D94
:1037C0002D68C5F3C1065D4D25FA06F4B4FBF1F58D
:1037D00001EE905AB8EE612ADFED5B1AC0EE212AA5
:1037E000554D20352D68C5F3080501EE905AF8EEC9
:1037F000611A72EEA11AF7EE002A71EEA21A62EEB9
:10380000211AB0EE611A1FE04C4DB5FBF1F501EE47
:10381000905AB8EE612ADFED4C1AC0EE212A464DCF
:1038200020352D68C5F3080501EE905AF8EE611AAF
:1038300072EEA11AF7EE002A00E077E071EEA21A0C
:1038400062EE211AB0EE611A5EE03D4DB5FBF1F576
:1038500001EE905AB8EE612ADFED3B1AC0EE212A44
:10386000354D20352D68C5F3080501EE905AF8EE68
:10387000611A72EEA11AF7EE002A71EEA21A62EE38
:10388000211AB0EE611A3FE02E4DB5FBF1F501EEC5
:10389000905AB8EE612ADFED2C1AC0EE212A264D8F
:1038A00020352D68C5F3080500E00EE001EE905AC2
:1038B000F8EE611A72EEA11AF7EE002A71EEA21A62
:1038C00062EE211AB0EE611A1EE01D4DB5FBF1F556
:1038D00001EE905AF8EE612ADFED1B1A80EE212AE4
:1038E000154D20352D68C5F3080501EE905AF8EE08
:1038F000611A72EE211AB7EE002A71EE821A62EE98
:10390000A11AB0EE611A00BF00BF0B4D20352D6823
:10391000C5F346256D1C00EE905AF8EE601A81EE54
:10392000212AFCEEC21A11EE900A01E0044800BF01
:1039300000BF70BD00000000104402580090D0038A
:1039400000093D0040787D010000004670B5044646
:103950000025207800F00100002872D0F9480068A6
:1039600000F0380010280CD0F648006800F038004D
:10397000182812D1F3481830006800F0030002281C
:103980000BD1F04810380068C0F3404000286DD0DB
:10399000606800286AD1012070BD00BF6068B0F582
:1039A000803F08D1E7481038006840F48030E5498E
:1039B000103908602EE0606868B9E2481038006885
:1039C00020F48030DF49103908600846006820F490
:1039D000802008601EE06068B0F5A02F0DD1D948A6
:1039E0001038006840F48020D64910390860084635
:1039F000006840F4803008600CE0D248103800685D
:103A000020F48030CF49103908600846006820F45F
:103A10008020086000BF6068A0B1FEF763FC054627
:103A200008E0FEF75FFC401B41F28831884201D973
:103A30000320B1E7C34810380068C0F340400028B5
:103A4000EFD013E0FEF74EFC054608E0FEF74AFC17
:103A5000401B41F28831884201D903209CE7B948D4
:103A600010380068C0F340400028EFD1207800F003
:103A70000200022847D1B348006800F0380058B16E
:103A8000B048006800F0380018283ED1AD48183022
:103A9000006800F00300B8BBAA4810380068C0F303
:103AA000800018B1E06808B9012075E7A548103812
:103AB000006820F01900E1680843A2491039086045
:103AC000FEF710FC054606E0FEF70CFC401B022842
:103AD00001D9032060E79B4810380068C0F38000DC
:103AE0000028F1D097480C38006820F47C304FF45F
:103AF0007C3292FAA2F2B2FA82F221699140084332
:103B000090490C3908604AE0FFE7E06868B38D48E7
:103B10001038006820F01900E1680843894910391D
:103B20000860FEF7DFFB054606E0FEF7DBFB401B07
:103B3000022801D903202FE7824810380068C0F31B
:103B400080000028F1D07F480C38006820F47C30D9
:103B50004FF47C3292FAA2F2B2FA82F221699140D9
:103B6000084378490C39086019E076481038006835
:103B700020F00100734910390860FEF7B3FB0546D9
:103B800006E0FEF7AFFB401B022801D9032003E744
:103B90006C4810380068C0F380000028F1D120780C
:103BA00000F01000102877D16648006800F0380057
:103BB00008280CD06348006800F03800182823D18A
:103BC00060481830006800F0030001281CD15D48EF
:103BD00010380068C0F3002020B1E069802801D0CF
:103BE0000120D9E657480C38006820F0F8404FF023
:103BF000F84292FAA2F2B2FA82F2216A91400843A4
:103C000050490C39086047E0E06958B34D48103816
:103C1000006840F080004B4910390860FEF762FBF5
:103C2000054606E0FEF75EFB401B022801D9032093
:103C3000B2E6444810380068C0F300200028F1D0F4
:103C400040480C38006820F0F8404FF0F84292FAF3
:103C5000A2F2B2FA82F2216A9140084339490C3942
:103C6000086019E037481038006820F080003549B6
:103C700010390860FEF736FB054606E0FEF732FB1A
:103C8000401B022801D9032086E62E481038006820
:103C9000C0F300200028F1D1207800F008000828A7
:103CA00036D16069D0B127486430006840F0010027
:103CB000244964310860FEF715FB054606E0FEF76F
:103CC00011FB401B022801D9032065E61D48643022
:103CD0000068C0F340000028F1D019E019486430B2
:103CE000006820F00100174964310860FEF7FAFA15
:103CF000054606E0FEF7F6FA401B022801D903202C
:103D00004AE6104864300068C0F340000028F1D152
:103D1000207800F02000202834D1A069D8B10948CB
:103D20001038006840F48050064910390860FEF7EA
:103D3000D9FA054608E0FEF7D5FA401B022803D958
:103D4000032029E610440258AF480068C0F3403011
:103D50000028F0D016E0AC48006820F48050AA4952
:103D60000860FEF7BFFA054606E0FEF7BBFA401B07
:103D7000022801D903200FE6A3480068C0F34030B1
:103D80000028F2D1207800F0040004287DD19F485B
:103D9000006840F480709D490860FEF7A3FA05466C
:103DA00006E0FEF79FFA401B642801D90320F3E5E3
:103DB0009648006800F480700028F2D000BFA06828
:103DC000012808D190487030006840F001008E4909
:103DD000703108602DE0A06868B98B4870300068C9
:103DE00020F001008849703108600846006820F022
:103DF000040008601DE0A06805280DD182487030DD
:103E0000006840F00400804970310860084600688E
:103E100040F0010008600CE07B487030006820F042
:103E200001007949703108600846006820F00400FC
:103E3000086000BFA068A0B1FEF754FA054608E08C
:103E4000FEF750FA401B41F28831884201D9032025
:103E5000A2E56D4870300068C0F340000028EFD044
:103E600013E0FEF73FFA054608E0FEF73BFA401B79
:103E700041F28831884201D903208DE562487030D3
:103E80000068C0F340000028EFD1606A00287CD0B1
:103E90005D481030006800F03800182876D0606A5D
:103EA000022874D15848006820F080705649086094
:103EB000FEF718FA054606E0FEF714FA401B022842
:103EC00001D9032068E550480068C0F3406000282D
:103ED000F2D100BFD4E90A1041EA00104A49283162
:103EE000096840F2F332914308434749283108609A
:103EF000208E401EC0F30800616B491E4FF47E42C5
:103F000002EA41210843218F491ED20102EA014100
:103F100008433C21095D491E120202EA016108437F
:103F200039493031086000BF081D00684FF6F8714C
:103F300088434FF6F87292FAA2F2B2FA82F2A16CBA
:103F4000914008433049343108602F482C300068D4
:103F500020F00C00216C08432B492C3108600846E6
:103F6000006820F00200616C084327492C3108608A
:103F70000846006840F4803008600846006840F455
:103F8000003008600846006802E03BE038E01FE0CF
:103F900040F4802008600846006840F00100086096
:103FA0001948006840F0807017490860FEF79AF9D8
:103FB000054606E0FEF796F9401B022801D90320CA
:103FC000EAE411480068C0F340600028F2D019E02C
:103FD0000D48006820F080700B490860FEF782F9F8
:103FE000054606E0FEF77EF9401B022801D90320B2
:103FF000D2E405480068C0F340600028F2D101E037
:104000000120C9E40020C7E40044025800480258D7
:10401000042808D14FF0E021096941F004014FF074
:10402000E022116107E04FF0E021096921F004016D
:104030004FF0E0221161704770B504462546681EB6
:10404000B0F1807F01D301200FE0681E4FF0E02126
:1040500048610F214FF0FF3004F086FF00204FF041
:10406000E021886107200861002070BD704770471B
:1040700010B504460CB9012010BD94F83D0028B9D4
:10408000002084F83C00204600F00CF8022084F860
:104090003D00211D206803F091FE012084F83D00C1
:1040A0000020E9E738B5044627492068884215D141
:1040B00000BF2648006840F0080024490860084610
:1040C000006800F00800009000BF00BF032201213B
:1040D0003220FEF75EF93220FEF74BF92068B0F18E
:1040E000804F15D100BF1948006840F00100174902
:1040F00008600846006800F00100009000BF00BFA3
:10410000032201211C20FEF744F91C20FEF731F99F
:104110000F492068884215D100BF0C48006840F064
:1041200020000A4908600846006800F0200000905E
:1041300000BF00BF032201213720FEF72AF93720F4
:10414000FEF717F938BD0000000C0040E8440258A3
:104150000014004001460868C06840F001000A6889
:10416000D0600868008840F001000A6810800020D4
:104170007047704710B5044620680069C0F34000DE
:10418000D8B12068C068C0F34000B0B16FF0020041
:1041900021680861012020772068806900F0030011
:1041A00018B12046FFF7E5FF05E0204600F0BEF815
:1041B000204600F00BFB0020207720680069C0F348
:1041C0008000D8B12068C068C0F38000B0B16FF043
:1041D000040021680861022020772068806900F4CB
:1041E000407018B12046FFF7C4FF05E0204600F0FC
:1041F0009DF8204600F0EAFA002020772068006948
:10420000C0F3C000D8B12068C068C0F3C000B0B12E
:104210006FF0080021680861042020772068C069D9
:1042200000F0030018B12046FFF7A3FF05E0204689
:1042300000F07CF8204600F0C9FA002020772068C2
:104240000069C0F30010D8B12068C068C0F3001046
:10425000B0B16FF010002168086108202077206855
:10426000C06900F4407018B12046FFF782FF05E0F6
:10427000204600F05BF8204600F0A8FA00202077E6
:104280002068006900F0010058B12068C06800F0A3
:10429000010030B16FF0010021680861204600F094
:1042A000CFFA20680069C0F3C01058B12068C06818
:1042B000C0F3C01030B16FF0800021680861204663
:1042C000FFF7D4FE20680069C0F3002058B12068D1
:1042D000C068C0F3C01030B16FF080002168086181
:1042E0002046FFF7C3FE20680069C0F3801058B174
:1042F0002068C068C0F3801030B16FF040002168C2
:104300000861204600F0BEFA20680069C0F3401042
:1043100058B12068C068C0F3401030B16FF0200081
:10432000216808612046FFF7A2FE10BD704770B5F6
:1043300004460D46164600BF94F83C00012801D102
:10434000022070BD012084F83C0000BF022084F8E8
:104350003D000C2E51D005DC4EB1042E1ED0082E8F
:104360007AD133E0102E60D0142EF9D175E02946B1
:10437000206803F097FD2068806940F008002168FC
:1043800088612068806920F00400216888612068C5
:104390008069296908432168886177E02946206897
:1043A00003F0D8FD2068806940F4006021688861CE
:1043B0002068806920F480602168886120688069B5
:1043C000296940EA0120216888615FE02946206868
:1043D00003F01EFE2068C06940F008002168C86133
:1043E0002068C06920F004002168C8612068C069A5
:1043F000296908432168C86148E02946206803F01C
:1044000061FE2068C06940F400602168C8612068CE
:10441000C06920F480602168C8612068C06929698A
:1044200040EA01202168C86130E02946206803F095
:1044300085FE2068406D40F00800216848652068CE
:10444000406D20F00400216848652068406D2969AE
:1044500008432168486519E017E02946206803F001
:10446000A5FE2068406D40F4006021684865206822
:10447000406D20F48060216848652068406D29699E
:1044800040EA01202168486500E000BF00BF01202C
:1044900084F83D0000BF002084F83C0000BF00BF4E
:1044A0004FE710B504460CB9012010BD94F83D004B
:1044B00028B9002084F83C00204600F00DF80220C6
:1044C00084F83D00211D206803F078FC012084F869
:1044D0003D000020E9E7000010B58CB00446B0496B
:1044E000206888422CD100BFAE48006840F001002F
:1044F000AC4908600846006800F00100069000BF63
:1045000000BF00BFA7481038006840F01000A54960
:10451000103908600846006800F01000069000BFDF
:1045200000BF4FF4D440079002200890002009906B
:104530000A9001200B9007A99B48FDF7A7FD2CE1ED
:104540009A492068884247D100BF964808380068D9
:1045500040F002009349083908600846006800F0FE
:104560000200019000BF00BF00BF8E4810380068F5
:1045700040F002008B49103908600846006800F0DE
:104580000200019000BF00BF00BF0846006840F075
:10459000010008600846006800F00100019000BFBB
:1045A00000BF0320079002200890002009900A9085
:1045B00002200B9007A97E48FDF768FDC0200290FD
:1045C000022003900020049005900220069002A98A
:1045D0007848FDF75BFDE0E077492068884248D1E4
:1045E00000BF70480838006840F004006D49083981
:1045F00008600846006800F00400019000BF00BF9A
:1046000000BF68481038006840F002006549103962
:1046100008600846006800F00200019000BF00BF7B
:1046200000BF0846006840F00800086008460068BF
:1046300000F00800019000BF00BFC02007900220DA
:104640000890002009900A9002200B9007A9584872
:10465000FDF71CFD4FF44040029002200390002023
:10466000049005900220069002A95448FDF70EFD23
:1046700093E05349206888422ED100BF494808384A
:10468000006840F040004749083908600846006863
:1046900000F04000069000BF00BF00BF4148103846
:1046A000006840F002003F49103908600846006881
:1046B00000F00200069000BF00BF4FF4404007909A
:1046C00002200890002009900A9002200B9007A970
:1046D0003748FDF7DBFC60E03A49206888422BD17F
:1046E00000BF3048006840F480302E49086008461A
:1046F000006800F48030069000BF00BF00BF29486A
:104700001038006840F0100026491039086008464B
:10471000006800F01000069000BF00BF6020079006
:1047200002200890002009900A9004200B9007A90D
:104730001D48FDF7ABFC30E02349206888422CD1AE
:1047400000BF1848006840F4003016490860084669
:10475000006800F40030069000BF00BF00BF1148A1
:104760001038006840F002000E4910390860084611
:10477000006800F00200069000BF00BF4FF4807098
:10478000079002200890002009900A9001200B90C9
:1047900007A90748FDF77AFC00BF0CB010BD000068
:1047A00000000140F044025800100258000400408C
:1047B000000402580000025800080040000C025893
:1047C00000180040004001400044014070470000D4
:1047D00030B504460D4601222946206803F054FBFB
:1047E0001249206888420FD01149206888420BD0B6
:1047F00010492068884207D00F492068884203D0BA
:104800000E492068884201D1012000E0002028B133
:104810002068406C40F400402168486420680088AB
:1048200040F0010021680880002030BD00000140F8
:1048300000040140004001400044014000480140A4
:1048400010B504460B4884420CD105F03FFC0A48E1
:1048500090ED000A0948D0ED000A30EE200A064823
:1048600080ED000A0648844203D100F087FC05F081
:1048700029FB10BDE0000024300000243800002493
:104880002001002470477047704700002DE9F04177
:1048900004462068C569206807682068866805F0B6
:1048A0000F08B8F1000F0DD105F0200050B107F04E
:1048B000200010B906F0805020B1204603F0A3FD7F
:1048C000BDE8F081B8F1000F72D05D48304018B9F2
:1048D00007F4907000287AD005F0010048B107F481
:1048E000807030B1012021680862E06F40F0010063
:1048F000E06705F0020048B106F0010030B1022087
:1049000021680862E06F40F00400E06705F00400F1
:1049100048B106F0010030B1042021680862E06F60
:1049200040F00200E06705F0080078B107F02000D1
:1049300028B906F0805010B906F0010030B1082007
:1049400021680862E06F40F00800E067E06F70B334
:1049500005F0200040B107F0200010B906F08050AB
:1049600010B1204603F04FFDE06F00F0080020B9C1
:104970002068806800F0400018B3204603F023FD53
:104980002068806800F04000B8B12068806820F09E
:10499000400021688860606F58B12A48616F0865DF
:1049A000606FFDF729F810B1606F016D88470DE069
:1049B0000DE02046FFF768FF08E02046FFF764FFA0
:1049C00004E02046FFF760FF0020E06778E705F489
:1049D000801078B106F4800060B14FF48010216837
:1049E0000862202084F8790084F87A002046FFF7D6
:1049F0004AFF65E705F0800048B107F0800010B974
:104A000006F4000018B1204604F014FA58E705F047
:104A1000400030B107F0400018B1204603F0E3FC3D
:104A20004EE705F4000040B107F0804028B120684F
:104A3000006820F080402168086000BF40E7000067
:104A400001000010AF83000810B504460CB9012026
:104A500010BDA06900B100E000BF94F8790028B94A
:104A6000002084F87800204600F02AF8242084F8FA
:104A700079002068006820F0010021680860204665
:104A800003F006FD012800D1E2E7606B10B120467B
:104A900003F0DEFB2068406820F490402168486005
:104AA0002068806820F02A002168886020680068FB
:104AB00040F0010021680860204603F03EFCC7E793
:104AC00010B586B004461D492068884233D100BF26
:104AD0001B48006840F00200194908600846006859
:104AE00000F00200009000BF00BF00BF1448083073
:104AF000006840F0804012490831086008460068AC
:104B000000F08040009000BF00BF182001900220FC
:104B1000029001200390022004900B20059001A92F
:104B20000848FDF7B3FA032211465220FDF731FC85
:104B30005220FDF71EFC06B010BD000000780040BA
:104B4000E04402580004025810B5034693F87A0076
:104B5000202867D101B10AB9012010BD00BF93F828
:104B60007800012801D10220F7E7012083F87800BE
:104B700000BF5966A3F86820A3F86A2000BF9868B0
:104B8000B0F5805F0AD1186920B940F2FF10A3F890
:104B90006C001CE0FF20A3F86C0018E0986848B98E
:104BA000186918B9FF20A3F86C0010E07F20A3F863
:104BB0006C000CE09868B0F1805F08D1186918B9F2
:104BC0007F20A3F86C0002E03F20A3F86C0000BF38
:104BD0000020D867222083F87A0000BF002083F8E5
:104BE000780000BF1868806840F001001C68A06071
:104BF0001868006800F0005060B11868006840F460
:104C000080701C6820601868806840F080501C68C4
:104C1000A06005E01868006840F490701C6820608F
:104C200000209AE7022098E77CB5044627492068CF
:104C300088424AD1606E10F8010C01909DF8040082
:104C40000D2816D09DF804000A2812D04FF6FF73E5
:104C5000012201A91E4800F047F89DF804001D49F3
:104C60001D4A127888541C480078401C1A49087064
:104C700017E09DF804000D2813D100200BE06221FD
:104C8000154A12780244134B995413490978014488
:104C9000CDB2411CC8B210490978C1F1140181425A
:104CA000EDDC132D11D1002000906B460B4A0CA1B6
:104CB00008480AF097FA09490868FBF775FB0949A3
:104CC000086000200449087000BF7CBD00780040E7
:104CD000BC0100243C0200244800002450020024AF
:104CE0002C0000003C0000242DE9F84304460D464A
:104CF00016461F464FF0000994F87900202854D139
:104D000005B116B90120BDE8F88300BF94F878001A
:104D1000012801D10220F6E7012084F8780000BFC5
:104D200000206034E06121206076FDF7DBFA8146E7
:104D300026806680603C21E0B4F86200401EA4F842
:104D400062004B46002280212046009704F0B3F811
:104D500008B10320D7E7A068B0F5805F0AD12069C9
:104D600040B9A846B8F80000C0F3080021680885DB
:104D7000AD1C03E015F8010B21680885B4F862004A
:104D80000028D9D14B46002240212046009704F04C
:104D900092F808B10320B6E7202084F8790000BF1C
:104DA000002084F8780000BFADE70220ABE7704731
:104DB00000BFFEE710B53048D0ED090AB0EE600A3A
:104DC0000920FBF765FC2C48D0ED010AB0EE600A23
:104DD0000120FBF75DFC2848D0ED050AB0EE600A23
:104DE0000520FBF755FC2448D0ED000AB0EE600A20
:104DF0000020FBF74DFC2048D0ED040AB0EE600A1D
:104E00000420FBF745FC1C48D0ED080AB0EE600A10
:104E10000820FBF73DFC1848D0ED020AB0EE600A0E
:104E20000220FBF735FC1448D0ED060AB0EE600A0C
:104E30000620FBF72DFC1048D0ED0A0AB0EE600A00
:104E40000A20FBF725FC0C48D0ED030AB0EE600AFF
:104E50000320FBF71DFC0848D0ED070AB0EE600AFE
:104E60000720FBF715FC0448D0ED0B0AB0EE600AF2
:104E70000B20FBF70DFC10BD6407002410B514488F
:104E8000144908604FF440304860002111488160A7
:104E9000C160042101610021017541750121816119
:104EA000002101770162012141620021816201211B
:104EB00080F8381009030163002180F83910C162BD
:104EC000FCF7FCF9002211460248FBF729FE10BD51
:104ED000002002407002002410B50B480B49086006
:104EE0004FF416504860002108488160C16001619C
:104EF00081610C214161FFF7A7FD012204490348AC
:104F0000FFF722FE10BD000000780040BC01002425
:104F10004600002400BFFEE7704770472DE9F041CE
:104F200004460E4600274848006800F003000328A6
:104F300002D10120BDE8F08143482838006820F004
:104F40008060414928390860FDF7CCF9054606E044
:104F5000FDF7C8F9401B022801D90320EAE73A48C7
:104F600028380068C0F3C0600028F1D100BF36487F
:104F7000006820F47C30216840EA01303249086042
:104F8000A088401EC0F30800A168491E4FF47E426D
:104F900002EA41210843A189491ED20102EA0141E6
:104FA0000843217C491E120202EA01610843264996
:104FB0001031086000BF2448001D006820F0C000C8
:104FC000616908432049091D08600846006820F00F
:104FD0002000A16908431C49091D08602EB9084634
:104FE000006840F40020086012E0012E08D1164845
:104FF000001D006840F480101349091D086007E097
:105000001148001D006840F400100F49091D086098
:105010000D482838006840F080600B492839086046
:10502000FDF760F9054606E0FDF75CF9401B022834
:1050300001D903207EE7044828380068C0F3C06027
:105040000028F1D0384675E7284402582DE9F04190
:1050500004460E4600274848006800F00300032875
:1050600002D10120BDE8F08143482838006820F0D3
:105070008050414928390860FDF734F9054606E0BB
:10508000FDF730F9401B022801D90320EAE73A482E
:1050900028380068C0F340700028F1D100BF3648BE
:1050A000006820F07C70218840EA01503249086095
:1050B000A088401EC0F30800A168491E4FF47E423C
:1050C00002EA41210843A189491ED20102EA0141B5
:1050D0000843217C491E120202EA01610843264965
:1050E0001831086000BF2448001D006820F44060AB
:1050F000616908432049091D08600846006820F4DA
:105100000070A16908431C49091D08602EB90846B2
:10511000006840F48000086012E0012E08D11648B3
:10512000001D006840F400001349091D086007E0F5
:105130001148001D006840F080700F49091D08608B
:105140000D482838006840F080500B492839086025
:10515000FDF7C8F8054606E0FDF7C4F8401B022835
:1051600001D903207EE7044828380068C0F3407066
:105170000028F1D0384675E72844025810B50222BD
:1051800010212748FBF7B4FC264908800222112190
:105190002348FBF7ADFC2449088002220E21204859
:1051A000FBF7A6FC2149088002220F211C48FBF7CF
:1051B0009FFC1F490880022212211948FBF798FC26
:1051C0001C4908801748008800121B4908701548C0
:1051D00000781A49087014480088001218490870AD
:1051E00011480078174908701048008800121649C5
:1051F00008700E480078154908700D4800880012A4
:10520000134908700A480078124908700948008854
:10521000001211490870074800781049087010BD45
:10522000700200244C0000244E0000245000002492
:10523000520000245400002456000024570000248B
:1052400058000024590000245A0000245B00002468
:105250005C0000245D0000245E0000245F00002448
:1052600010B50023234C236000BF00BF00BFBFF375
:105270004F8F00BF00BF00BF231F1868C0F34E311F
:1052800000BFC0F3C90200BF43F6E07303EA411355
:105290004FF0404404EA82742343174C236000BF5C
:1052A00000BF131EA2F10102EED10B1EA1F10101FC
:1052B000E7D100BF00BF00BFBFF34F8F00BF00BFEB
:1052C00000BF0C4B703B1B6843F48033094C703CAF
:1052D000236000BF00BF00BFBFF34F8F00BF00BF00
:1052E00000BF00BF00BF00BFBFF36F8F00BF00BF94
:1052F00000BF10BD84ED00E060EF00E000BF00BF24
:1053000000BFBFF34F8F00BF00BF00BF00BF00BF93
:1053100000BFBFF36F8F00BF00BF00BF0020144964
:10532000086000BF00BF00BFBFF34F8F00BF00BFCA
:1053300000BF00BF00BF00BFBFF36F8F00BF00BF43
:1053400000BF0C48006840F400300A49086000BF04
:1053500000BF00BFBFF34F8F00BF00BF00BF00BF43
:1053600000BF00BFBFF36F8F00BF00BF00BF70471B
:1053700050EF00E014ED00E07047000000B587B08A
:1053800000BF3948006840F004003749086008460B
:10539000006800F00400019000BF00BF41F2FF3040
:1053A000029001200390002004900220059002A9A1
:1053B0002E48FCF76BFE012211462C48FCF78CFFAF
:1053C000012202212948FCF787FF012204212748F6
:1053D000FCF782FF012208212448FCF77DFF01220F
:1053E00010212248FCF778FF012220211F48FCF7FA
:1053F00073FF012240211D48FCF76EFF012280212E
:105400001A48FCF769FF012211021848FCF764FFF3
:10541000012251021548FCF75FFF012211031348D6
:10542000FCF75AFF00BF1048006840F002000E4928
:1054300008600846006800F00200019000BF00BF4D
:105440004FF480700290012003900020049005909A
:1054500002A90748FCF71AFE012211020448FCF7D2
:105460003BFF07B000BD0000E044025800080258AE
:105470000004025810B5002201211B48FCF72CFF44
:10548000002202211848FCF727FF002204211648B9
:10549000FCF722FF002208211348FCF71DFF002221
:1054A00010211148FCF718FF002220210E48FCF7BC
:1054B00013FF002240210C48FCF70EFF0022802140
:1054C0000948FCF709FF00224FF480710648FCF7F9
:1054D00003FF00224FF400710348FCF7FDFE4FF478
:1054E000FA70FCF705FB10BD0008025810B5012248
:1054F00011461A48FCF7F0FE012202211748FCF77A
:10550000EBFE012204211548FCF7E6FE01220821EA
:105510001248FCF7E1FE012210211048FCF7DCFEE6
:10552000012220210D48FCF7D7FE012240210B4823
:10553000FCF7D2FE012280210848FCF7CDFE0122B3
:1055400011020648FCF7C8FE012251020348FCF78D
:10555000C3FE4FF4FA70FCF7CBFA10BD00080258F6
:105560009FED180A184880ED080A9FED180A80ED93
:10557000040AB3EE040A80ED000A9FED150A80EDDF
:105580000A0A9FED140A80ED060ABBEE0E0A80EDB2
:10559000020A9FED110A80ED090A9FED100A80EDC5
:1055A000050A9FED0F0A80ED010A9FED0E0A80EDBE
:1055B0000B0A9FED0D0A80ED070AB3EE0E0A80ED8F
:1055C000030A704700005CC26407002400002C42FC
:1055D00000004842000048C200003442000034C2CB
:1055E00000000CC2000054C20000784200B52DED4E
:1055F000048B9DB0302110A8FAF7A2FE202108A844
:10560000FAF79EFEFE4890ED000AB7EEC00A9FED45
:10561000FD1B20EE010B9FEDFD1B80EE012BB7EE75
:10562000C20B80ED000AFB4890ED000AFA48D0ED6D
:10563000000A30EE200A20EE000AF848D0ED000AF9
:10564000F74890ED001A70EE810AF44890ED001AC8
:10565000F348D0ED001A31EE211A00EE810AB7EEC0
:10566000C00A8DED040B9DED040B04F035F9B7EE87
:10567000C00BEC4880ED000AE64890ED000A20EEF1
:10568000000AE648D0ED000A90ED001A00EE810A0B
:10569000B7EEC00A8DED040B9DED040B04F01CF970
:1056A000B7EEC00BE04880ED000ADA4890ED000A42
:1056B000D948D0ED000A30EE200ADA48D0ED000AD1
:1056C00080EE201AB7EEC10A8DED040B9DED040BA0
:1056D00003F062FCB7EEC00B8DED070ACD4890EDEC
:1056E000000AD148D0ED000A80EE201AB7EEC10AB8
:1056F0008DED040B9DED040B03F04EFCB7EEC00BDB
:105700008DED060A9FEDC90AC94880ED000A02F036
:1057100007B8C84890ED000AF0EE000A80EE201AA3
:10572000C34890ED000AB4EEC01AF1EE10FA7CDD29
:1057300090ED000AB5EEC00AF1EE10FA75DBB04844
:1057400090ED000ABA48D0ED000A20EE200AB948D0
:1057500090ED001AC0EE010A9DED070AB0EE001AA6
:1057600000EE810AB7EEC00A8DED040B9DED040B2F
:1057700004F002F8AB4890ED001AB7EEC11A20EE23
:10578000018B9F4890ED000AA948D0ED000A20EE59
:10579000200AA84890ED001AC0EE010A9DED060A05
:1057A000B0EE001A00EE810AB7EEC00A8DED040BD0
:1057B0009DED040B03F0E0FF9B4890ED001AB7EE5F
:1057C000C11A01EE408B9C4890ED000AF0EE000AF1
:1057D00020EE200A9648D0ED000A20EE200A9548D7
:1057E000D0ED000A80EE201AB7EEC10A38EE000BA9
:1057F000B7EEC00B914880ED000A814890ED000A99
:105800008B48D0ED000A20EE200A8A4890ED001A5D
:10581000C0EE010A9DED070AB0EE001A00EE810A03
:10582000B7EEC00A8DED040B00E0FCE39DED040B28
:1058300003F0FAFF7B4890ED001AB7EEC11A20EE94
:10584000018B6F4890ED000A7948D0ED000A20EEF8
:10585000200A784890ED001AC0EE010A9DED060A74
:10586000B0EE001A00EE810AB7EEC00A8DED040B0F
:105870009DED040B03F0D8FF6B4890ED001AB7EED6
:10588000C11A01EE408B6E4890ED000AF0EE000A5E
:1058900020EE200A6648D0ED000A20EE200A654876
:1058A000D0ED000A80EE201AB7EEC10A38EE000BE8
:1058B000B7EEC00B634880ED000A5F4890ED000A28
:1058C00020EE000A5E48D0ED000A90ED001A00EECE
:1058D000810AB7EEC00A8DED040B9DED040B03F0B9
:1058E000FBFFB1EE001B20EE011B514890ED000ABA
:1058F000B7EEC00A21EE001B4E4890ED000AB7EE4D
:10590000C02A81EE020BB0EE001B80EE018B4A48EC
:1059100090ED000A20EE000A4948D0ED000A90ED13
:10592000001A00EE810AB7EEC00A8DED040B9DED62
:10593000040B03F0D1FFB0EE001B80EE012B38EE1C
:10594000421B414890ED000AB7EEC00A21EE008BE1
:10595000394890ED000A20EE000A3948D0ED000ADF
:1059600090ED001A00EE810AB7EEC00A8DED040B2F
:105970009DED040B03F0B0FFB1EE001B20EE011B08
:105980002B4890ED000AB7EEC00A21EE001B294813
:1059900090ED000AB7EEC02A81EE020BB0EE001BBC
:1059A00080EE019B244890ED000A20EE000A244876
:1059B000D0ED000A90ED001A00EE810AB7EEC00AA1
:1059C0008DED040B9DED040B03F086FFB0EE001B84
:1059D00080EE012B39EE420B28EE002B164890ED9D
:1059E000000A20EE000A1648D0ED000A90ED001AD9
:1059F00000EE810AF1EE000A80EE201A26E0000097
:105A0000C80000246F1283C0CA21094000000000B2
:105A100000806640AC000024A4000024B0000024F4
:105A2000A0000024B4000024B800002400000000FE
:105A3000D0000024D4000024C000002498070024D3
:105A4000C4000024A8070024CC000024B7EEC11A2B
:105A500082EE010BFE4890ED001ADFEDFE1A31EEEA
:105A6000211AB7EEC11A31EE400BB7EEC00BFA485F
:105A700080ED000AF94890ED000AF948D0ED000ADF
:105A800020EE200AF74890ED001AC0EE010A9DEDC5
:105A9000070AB0EE001A00EEC10AB7EEC00A8DED9B
:105AA000040B9DED040B03F067FEEF4890ED001A28
:105AB000B7EEC11A20EE018BE84890ED000AE848E5
:105AC000D0ED000A20EE200AE64890ED001AC0EE64
:105AD000010A9DED060AB0EE001A00EEC10AB7EE0B
